:07028D00D2AF12000380FE56
:1000030090802A7405F090802BF090802CF0750876
:100013000E750966E4F50EF50FF50CF50DF50AF509
:100023000BF519F51AF51B7B01FD7F021201F0E4B4
:10003300F519F51AF51BFBFD7F031201F0E4F51921
:10004300F51AF51B7B01FD7F041201F0AB0BAA0A25
:10005300AD09AC087F02120282AB0DAA0CAD09AC4C
:10006300087F03120282AB0FAA0EAD09AC087F040E
:100073001202827F1C1202991202947F1C12029CAC
:100083007F011202647405250BF50BE4350AF50AAA
:10009300D3E50B9509E50A9508400685080A850905
:1000A3000BAB0BAA0AAD09AC087F021202827F04D4
:1000B300120299C3E50B9509E50A950840C27F0131
:1000C300120264C3E50B9405E50A9400400E74FB29
:1000D300250BF50B74FF350AF50A8005E4F50AF5DF
:1000E3000BAB0BAA0AAD09AC087F021202827F0494
:1000F300120299E50B450A70C57F0112026474056B
:10010300250DF50DE4350CF50CD3E50D9509E50C3E
:100113009508400685080C85090DAB0DAA0CAD09A1
:10012300AC087F031202827F08120299C3E50D9582
:1001330009E50C950840C27F01120264C3E50D94E2
:1001430005E50C9400400E74FB250DF50D74FF3589
:100153000CF50C8005E4F50CF50DAB0DAA0CAD09FF
:10016300AC087F031202827F08120299E50D450C49
:1001730070C57F011202647405250FF50FE4350E77
:10018300F50ED3E50F9509E50E9508400685080E93
:1001930085090FAB0FAA0EAD09AC087F04120282CA
:1001A3007F10120299C3E50F9509E50E950840C229
:1001B3007F01120264C3E50F9405E50E9400400E1F
:1001C30074FB250FF50F74FF350EF50E8005E4F56E
:1001D3000EF50FAB0FAA0EAD09AC087F0412028215
:0D01E3007F10120299E50F450E70C50183D3
:1001F0008FF7EF30E010ED33333354F8FFE5DD5483
:10020000F04F451B800DED33333354F8FFE5DD54DB
:10021000F04F4BF5DDE519C43333335480451AF5FF
:02022000DE22DC
:0B0282008FF78CD18DDF8AD38BD22246
:030299008FDB22D6
:05029400E5DB70FC2217
:03029C008FDA22D4
:100222008FF7EDC43333335480FFE5DD540F4FFFB6
:10023200EBC4333354C04FFFE513C43354E04FFFD4
:0C024200E514C454F04FF5DD8515DC22F6
:10024E00EF1FAA0670011E4A600BE4FDEDC3940F6A
:05025E0050EE0D80F7D9
:010263002278
:10026400AC07AF041CEF60097F147E0012024E80BD
:02027400F12275
:0300000002027683
:0C027600787FE4F6D8FD75811B02028D34
:00000001FF
