:10079500576174636820646F67206578616D706C5C
:0407A50065210A00C0
:100003007F007EC27D017C001205D5D2AF7BFF7AD3
:0B0013000779951200261206FF80FE00
:0805D5008F258E248D238C225A
:1005DD009080197403F0908018F0E4900166F0A3F8
:1005ED00F0900100F0A3F0C2097F20FEFDFCAB25C9
:1005FD00AA24A923A8221203DBA804A905AA06ABE5
:10060D00077F007E407D387C00120466C3E49FFFA7
:10061D00E49EAD0775C824F5CB8DCAF5CD8DCCD232
:06062D00CE759850D2AC1E
:0106330022A4
:10063400900167E0FD900166E0FCC39D5006C3EDA8
:100644009CFE800DED2414FE900166E0FDC3EE9D3A
:10065400FEEED3940140D9C2AC900166E004F0E010
:1006640075F01484E5F0F0E02408F8A607200918D2
:10067400D2ACA3E004F0E075F01484E5F0F0E024DB
:0A06840008F8E6F599D20922D2AC7D
:01068E002249
:0300230002056D66
:10056D00C0E0C0F0C083C082C0D075D000C000C054
:10057D000730981DC298900100E004F0E075F0641A
:10058D0084E5F0F0E02402F582E43401F583E59989
:10059D00F0309925C299900167E0FF900166E06FF8
:1005AD006015A3E004F0E075F01484E5F0F0E024AC
:1005BD0008F8E6F5998002C209D007D000D0D0D056
:0805CD0082D083D0F0D0E032AF
:10074D008B378A388939AB37AA38A9391203C26079
:10075D00130539E5397002053814F91203C2FF1279
:05076D00063480E222C9
:060026008B228A238924CD
:10002C007534007535007536258B378A38893985D6
:10003C00343A85353B85363C7B017A0079001206D3
:0A004C00D17B017A00790002074D14
:10077200576174636820646F6720696E7465727272
:10078200757074206576656E742068617070656E30
:03079200210A0039
:0300630002068F03
:10068F00C0E0C0F0C083C082C0D075D000C000C031
:0D069F0001C002C003C004C005C006C007B2
:0A06AC00E5AB30E10512001ED20A92
:1006B600D007D006D005D004D003D002D001D00098
:0B06C600D0D0D082D083D0F0D0E03242
:1006FF00908080E04480F07B0F7A00E4FD7F02124F
:10070F000056D2ED12001E300AFDC20A7BFF7A0797
:07071F00797212002680F040
:0D005600EFC43354E04DF5AA8AAD8BAC2207
:04001E0075ABA522F7
:030000000207A94B
:0C07A900787FE4F6D8FD75815002000353
:1003C200BB010689828A83E0225002E722BBFE0239
:0903D200E32289828A83E493226C
:1003DB00E88FF0A4CC8BF0A42CFCE98EF0A42CFCC1
:1003EB008AF0EDA42CFCEA8EF0A4CDA8F08BF0A43F
:1003FB002DCC3825F0FDE98FF0A42CCD35F0FCEB9E
:10040B008EF0A4FEA9F0EB8FF0A4CFC5F02ECD3962
:0F041B00FEE43CFCEAA42DCE35F0FDE43CFC22CF
:10042A0075F008758200EF2FFFEE33FECD33CDCC89
:10043A0033CCC58233C5829BED9AEC99E58298400C
:10044A000CF582EE9BFEED9AFDEC99FC0FD5F0D6E9
:10045A00E4CEFBE4CDFAE4CCF9A88222B800C1B913
:10046A000059BA002DEC8BF084CFCECDFCE5F0CB51
:10047A00F97818EF2FFFEE33FEED33FDEC33FCEB8A
:10048A0033FB10D703994004EB99FB0FD8E5E4F945
:10049A00FA227818EF2FFFEE33FEED33FDEC33FC32
:1004AA00C933C910D7059BE99A4007EC9BFCE99A26
:1004BA00F90FD8E0E4C9FAE4CCFB2275F010EF2F6B
:1004CA00FFEE33FEED33FDCC33CCC833C810D7076B
:1004DA009BEC9AE899400AED9BFDEC9AFCE899F8A6
:0E04EA000FD5F0DAE4CDFBE4CCFAE4C8F92239
:1006D100853740853841853942EBC53AFBEAC53B50
:1006E100FAE9C53CF97F0978431203C2F60809E922
:0E06F10070010ADFF4AB3AAA3BA93C0200C23A
:10006600E54C2440F8E6054C22783D3007027840FE
:10007600E475F0011205370203C22000EB7F2ED291
:10008600008018EF540F2490D43440D4FF30040B72
:10009600EF24BFB41A0050032461FFE54D6002153A
:1000A6004D0550E5507002054F30070D783DE4755B
:1000B600F001120537EF0205250207267403D20761
:1000C6008003E4C207F54C8B3D8A3E893FE4F54D3B
:1000D600F54FF550E54D60077F201200A180F575BC
:1000E6004EFFC201C200C202C203C205C206C20856
:1000F60012006FFF700D3007057F001200B2AF507F
:10010600AE4F22B4255FC2D5C20412006FFF24D0C1
:10011600B40A00501A75F00A784D30D50508B6FFB6
:100126000106C6A426F620D5047002D20380D9247F
:10013600CFB41A00EF5004C2E5D2040202B2D201D3
:1001460080C6D20080C0D20280BCD2D580BAD20589
:1001560080B47F201200A12002077401B54D004033
:10016600F1120066FF1200A10200DAD208D2068060
:1001760095120066FB120066FA120066F94A4B7089
:100186000679837A037BFF20022EE54D602A7E00E6
:100196008E827583001204F860060EEE654E70F0CE
:1001A600C2D5EBC0E0EAC0E0E9C0E0EE1202F9D049
:1001B600E0F9D0E0FAD0E0FB1203C2FF60AAEBC080
:1001C600E0EAC0E0E9C0E01200A1D0E02401F9D0E5
:1001D600E03400FAD0E0FBE54E0460DCD54ED98071
:1001E600877BFF7A0279F5D202809C7910800279AA
:1001F60008C206C2088008D2D5790A8004790AC2E4
:10020600D5E54E047002F54EE4FAFDFEFF120066D7
:10021600FC7B08200113120066FD7B1030000A12D9
:100226000066FE120066FF7B20EC3382D592D55025
:1002360013C3E43000069FFFE49EFEE42001039D05
:10024600FDE49CFCE4CBF8C201EC700CCFCECDCC27
:10025600E824F8F870F38017C3EF33FFEE33FEEDB2
:1002660033FDEC33FCEB33FB994002FB0FD8E9EB93
:10027600300105F8D0E0C448B201C0E00AEC4D4EAA
:100286004F78207B0070C2EAB54E0040BCC0E01239
:1002960002FBD0F0D0E0200104C4C0E0C4B201C02B
:1002A600F012008AD0F0D5F0EB0200DA1205470111
:1002B600775301F15801484C01444201F54F01FDC5
:0F02C6004401FD49015D4302035501E74601E78D
:1002D5004501E74703A350014C2D01502E01732B17
:1002E500015423017120038C2A010C480000016B85
:1002F5003F3F3F00790AA2D5200314300509B91004
:10030500020404B9080104A2D52006025001042004
:1003150002689202B54D005034C0E07F20300319C9
:100325007F30A20272067205500F120352C202C23A
:1003350006C205C2087F30800F300503E9C0E01210
:1003450000A1300503D0E0F9D0E0B54DCC3005175C
:100355007F30B9100C1200A17F583004077F7880D8
:1003650003B908031200A13002057F2D0200A17F09
:10037500202008F87F2B2006F322920280CF286EDA
:10038500756C6C2900D2011200663001F8C2017843
:100395004D30D50108F602010C2D50434958120085
:1003A500662403B405004001E490039E9312009275
:0D03B500743A120092D203754D040201F15A
:1004F800BB010CE58229F582E5833AF583E02250B9
:1005080006E92582F8E622BBFE06E92582F8E22202
:0D051800E58229F582E5833AF583E493221C
:10052500BB010689828A83F0225002F722BBFE01B5
:02053500F322AF
:10053700FAE6FB0808E6F925F0F618E6CA3AF622C5
:10054700D083D082F8E4937012740193700DA3A343
:1005570093F8740193F5828883E473740293686057
:06056700EFA3A3A380DF57
:10072600EFB40A07740D120731740A309811A899AC
:10073600B8130CC2983098FDA899C298B811F63033
:0707460099FDC299F599220B
:00000001FF
