:1007E200636F646531203D20307825782C636F6417
:1007F2006532203D20307825782C636F6465332084
:100802003D20307825782C636F646534203D20309C
:10081200782578200A004952435F4D7367203D20B6
:10082200307825780A0001A2026203E2042205025E
:0A08320006C207E008A809900A9822
:10000E00E4F5F775FB8090800004F0D2E843F90127
:04001E0043F8012280
:0B09A700E58954CF4410F589D28E2260
:03003B0002054576
:10054500C0E0C0D075D000C000C004C005C006C062
:01055500079E
:10055600E5FA20E002C12675FA01C28EAF8DEFFEE4
:10056600AD8BEDFFD28EE5587002C11CC3EF955AD4
:10057600FDEE9559FC200A1CD3ED94DFEC940E5049
:1005860002C11CED9497EC94114002C11CD20A756D
:100596005600C11CD3ED943DEC9402402EED9425FB
:1005A600EC94035026E556131313541F245DF8C02C
:1005B60000E6FDE5565407FCC374079CFC7401A8CD
:1005C60004088002C333D8FC4D8036D3ED9422EC68
:1005D60094014034ED9496EC9401502CE556131397
:1005E60013541F245DF8C000E6FDE5565407FCC30E
:1005F60074079CFC7401A804088002C333D8FCF479
:100606005DD000F605568002C20AE556B4200730D2
:100616000A04C20AD20B8E598F5A75580375570DA4
:0F062600D007D006D005D004D000D0D0D0E0321D
:10002600E58954FC4401F589E4F58A758CF4D28C93
:03003600D2A9222A
:03000B00020934B3
:10093400C0E0758A00758CF4E55760021557E555DB
:0D09440060021555E55860021558D0E032EC
:1009850012000E1209A7E4F558C20AF557C209C2AA
:060995000CF55BF55C228D
:10089A00E4FEEE25E02429F582E43408F583E493A6
:1008AA00B50710EE25E02428F582E43408F583E440
:0908BA0093FF220EBE0ADB7F0051
:0108C3002212
:10063500E4F522F52320094B300B7BC20B7BFF7AB7
:100645000779E2F527855D28F529855E2AF52B854D
:100655005F2CF52D85602E12083CE55D7058E55E32
:10066500F47053E560F4655F704CAF5F12089A75DE
:1006750022008F23852253852354D209C20C755538
:10068500648033E5577014E553200C04440180025F
:100695004403F522855423C209801BE555701720B4
:1006A5000C08D20CE55344048004E5534402F522BA
:0A06B50085542375551EAE22AF23B5
:0106BF002218
:100910001209851200261206358E5B8F5CE55C4558
:100920005B60F37BFF7A087918855B27855C28126A
:04093000083C80E21D
:10096C0052656D6F746520636F6E74726F6C206569
:09097C0078616D706C65210A00C0
:100951007F007EC27D017C00120728D2AF7BFF7A27
:0B09610009796C12083C12091080FE9E
:080728008F258E248D238C2205
:100730009080197403F0908018F0E4900166F0A3A3
:10074000F0900100F0A3F0C20D7F20FEFDFCAB2570
:10075000AA24A923A8221203B3A804A905AA06ABB8
:10076000077F007E407D387C0012043EC3E49FFF7B
:10077000E49EAD0775C824F5CB8DCAF5CD8DCCD2DE
:06078000CE759850D2ACCA
:010786002250
:10078700900167E0FD900166E0FCC39D5006C3ED54
:100797009CFE800DED2414FE900166E0FDC3EE9DE6
:1007A700FEEED3940140D9C2AC900166E004F0E0BC
:1007B70075F01484E5F0F0E02408F8A607200D187A
:1007C700D2ACA3E004F0E075F01484E5F0F0E02487
:0A07D70008F8E6F599D20D22D2AC25
:0107E10022F5
:030023000206C012
:1006C000C0E0C0F0C083C082C0D075D000C000C000
:1006D0000730981DC298900100E004F0E075F064C6
:1006E00084E5F0F0E02402F582E43401F583E59935
:1006F000F0309925C299900167E0FF900166E06FA4
:100700006015A3E004F0E075F01484E5F0F0E02457
:1007100008F8E6F5998002C20DD007D000D0D0D0FD
:0807200082D083D0F0D0E0325A
:1008EB008B398A3A893BAB39AA3AA93B12039A60F6
:1008FB0013053BE53B7002053A14F912039AFF12FC
:05090B00078780E222D5
:06083C008B248A258926A9
:100842007536007537007538278B398A3A893B85AA
:10085200363C85373D85383E7B017A0079001208A7
:0A0862006C7B017A0079000208EBBC
:0300000002099B57
:0C099B00787FE4F6D8FD758160020951F8
:10039A00BB010689828A83E0225002E722BBFE0261
:0903AA00E32289828A83E4932294
:1003B300E88FF0A4CC8BF0A42CFCE98EF0A42CFCE9
:1003C3008AF0EDA42CFCEA8EF0A4CDA8F08BF0A467
:1003D3002DCC3825F0FDE98FF0A42CCD35F0FCEBC6
:1003E3008EF0A4FEA9F0EB8FF0A4CFC5F02ECD398B
:0F03F300FEE43CFCEAA42DCE35F0FDE43CFC22F8
:1004020075F008758200EF2FFFEE33FECD33CDCCB1
:1004120033CCC58233C5829BED9AEC99E582984034
:100422000CF582EE9BFEED9AFDEC99FC0FD5F0D611
:10043200E4CEFBE4CDFAE4CCF9A88222B800C1B93B
:100442000059BA002DEC8BF084CFCECDFCE5F0CB79
:10045200F97818EF2FFFEE33FEED33FDEC33FCEBB2
:1004620033FB10D703994004EB99FB0FD8E5E4F96D
:10047200FA227818EF2FFFEE33FEED33FDEC33FC5A
:10048200C933C910D7059BE99A4007EC9BFCE99A4E
:10049200F90FD8E0E4C9FAE4CCFB2275F010EF2F93
:1004A200FFEE33FEED33FDCC33CCC833C810D70793
:1004B2009BEC9AE899400AED9BFDEC9AFCE899F8CE
:0E04C2000FD5F0DAE4CDFBE4CCFAE4C8F92261
:10086C00853942853A43853B44EBC53CFBEAC53DA3
:10087C00FAE9C53EF97F09784512039AF60809E9A9
:0E088C0070010ADFF4AB3CAA3DA93E02009ABF
:10003E00E54E2442F8E6054E22783F30070278421C
:10004E00E475F00112050F02039A2000EB7F2ED209
:10005E00008018EF540F2490D43440D4FF30040B9A
:10006E00EF24BFB41A0050032461FFE54F60021560
:10007E004F0552E5527002055130070D783FE47579
:10008E00F00112050FEF0204FD0208C47403D2073B
:10009E008003E4C207F54E8B3F8A408941E4F54F59
:1000AE00F551F552E54F60077F2012007980F57506
:1000BE0050FFC201C200C202C203C205C206C2087C
:1000CE00120047FF700D3007057F0012008AAF52F5
:1000DE00AE5122B4255FC2D5C204120047FF24D010
:1000EE00B40A00501A75F00A784F30D50508B6FFDD
:1000FE000106C6A426F620D5047002D20380D924A8
:10010E00CFB41A00EF5004C2E5D20402028AD20123
:10011E0080C6D20080C0D20280BCD2D580BAD205B1
:10012E0080B47F201200792002077401B54F004081
:10013E00F112003EFF1200790200B2D208D2068000
:10014E009512003EFB12003EFA12003EF94A4B7029
:10015E0006795B7A037BFF20022EE54F602A7E0034
:10016E008E827583001204D060060EEE655070F01C
:10017E00C2D5EBC0E0EAC0E0E9C0E0EE1202D1D099
:10018E00E0F9D0E0FAD0E0FB12039AFF60AAEBC0D0
:10019E00E0EAC0E0E9C0E0120079D0E02401F9D035
:1001AE00E03400FAD0E0FBE5500460DCD550D98095
:1001BE00877BFF7A0279CDD202809C7910800279FA
:1001CE0008C206C2088008D2D5790A8004790AC20C
:1001DE00D5E550047002F550E4FAFDFEFF12003E24
:1001EE00FC7B0820011312003EFD7B1030000A122A
:1001FE00003EFE12003EFF7B20EC3382D592D5509E
:10020E0013C3E43000069FFFE49EFEE42001039D2D
:10021E00FDE49CFCE4CBF8C201EC700CCFCECDCC4F
:10022E00E824F8F870F38017C3EF33FFEE33FEEDDA
:10023E0033FDEC33FCEB33FB994002FB0FD8E9EBBB
:10024E00300105F8D0E0C448B201C0E00AEC4D4ED2
:10025E004F78207B0070C2EAB5500040BCC0E0125F
:10026E0002D3D0F0D0E0200104C4C0E0C4B201C07B
:10027E00F0120062D0F0D5F0EB0200B212051F01B1
:10028E004F5301C95801204C011C4201CD4F01D5DD
:0F029E004401D54901354301DB5501BF4601BF7E
:1002AD004501BF47037B5001242D01282E014B2B07
:1002BD00012C2301492003642A00E4480000014376
:1002CD003F3F3F00790AA2D5200314300509B9102C
:1002DD00020404B9080104A2D5200602500104202D
:1002ED0002689202B54F005034C0E07F20300319F0
:1002FD007F30A20272067205500F12032AC202C28B
:10030D0006C205C2087F30800F300503E9C0E01238
:10031D000079300503D0E0F9D0E0B54FCC300517AA
:10032D007F30B9100C1200797F583004077F788028
:10033D0003B908031200793002057F2D0200797F81
:10034D00202008F87F2B2006F322920280CF286E02
:10035D00756C6C2900D20112003E3001F8C2017893
:10036D004F30D50108F60200E42D504349581200D4
:10037D003E2403B405004001E49003769312006A15
:0D038D00743A12006AD203754F040201C9D0
:1004D000BB010CE58229F582E5833AF583E02250E1
:1004E00006E92582F8E622BBFE06E92582F8E2222B
:0D04F000E58229F582E5833AF583E4932245
:1004FD00BB010689828A83F0225002F722BBFE01DE
:02050D00F322D7
:10050F00FAE6FB0808E6F925F0F618E6CA3AF622ED
:10051F00D083D082F8E4937012740193700DA3A36B
:10052F0093F8740193F5828883E47374029368607F
:06053F00EFA3A3A380DF7F
:1008C400EFB40A07740D1208CF740A309811A8996E
:1008D400B8130CC2983098FDA899C298B811F63094
:0708E40099FDC299F599226C
:00000001FF
