:084955004D435553544152003B
:1021C4001217F990801A7403F0A3F043A108E5A153
:1021D40030E2FBE4F5B17B84FA7D017F041248C749
:1021E400123FFC1241467F007E4B7D007C0012377B
:1021F4009B90801C7406F090800EF0900282740113
:10220400F0E4A3F0A3F07B01FD7F011242DC900215
:10221400827401F0E4A3F0A3F07B01FD7F0312427A
:10222400DC7B007A487D007C487F011248A57B0056
:102234007A487D007C487F031248A57F0A12497EB4
:102244001200067F0A124981E4900282F0FBFD7FAE
:102254000112457BE4900282F0A37414F0A3E4F02D
:102264007B01FDFF123D0E9001FE7414F0A3E4F017
:1022740090801004F0E4FBFD7F101248B6900282B7
:102284007407F0E4A3F0A3F0FB7D017F031244F193
:102294007B017D017F011246BEE4FF124984E4FB09
:1022A400FD7F051249367B017D017F01124766D20D
:1022B400EED2AF1245A61244C27BFF7A4979557D0E
:1022C4000712421D123FFC123BBA900325EFF0F4B3
:1022D400603CE0702012438C90032574FFF0E4FF0F
:1022E4001227FA1235DA90020874FFF0E4A3F09092
:1022F400020DF08019900325E0B401127F0112272A
:10230400FA1238009002087401F0A37404F09002E9
:1023140008E0B40125124745121000124703121CAD
:10232400661246E1122800124623123674123FB98F
:1023340012353B7F01124460808A900208E0FFB4AA
:10234400FF0720A00241C841C8EF64FE600241C8F3
:1023540030A00241C812438CE4FF1227FA1235DA86
:0F23640090020874FFF0E4A3F090020DF041C85E
:101F3500677265656E0A004D4F44455F4844004928
:101F4500535F52494E47310049535F52494E47321C
:101F55000048004650452443F842CC41A040743B1C
:101F6500603A34390837DC36B0358430702F442E6A
:101F7500182CEC2BC02A942968283C271025E4242A
:101F8500B8238C22C42198206C1F401E141CE81B0A
:101F950058138807D003E801F401F403E805140693
:101FA50040076C089809C40BB80CE40E100FA0107C
:101FB500CC11F8138814B415E01770189C19C81BB8
:101FC500581C841DB01F40206C21982328245425BB
:101FD500802710283C296842CC43F84524465048C0
:011FE50000FB
:1030FE00410204004101FC00420202000041021B99
:10310E00004101B2004101F6004101F8004101B059
:10311E0000410206004101B1004101FD004201FAE9
:10312E000000410205004201B336B0420215000113
:10313E004101F9004101F7004101F5004101AA00EA
:10314E004101AB004101AC004101AD004101AE00B7
:04315E004101AF007C
:104146009080107401F090800B7405F090800974D3
:1041560002F0E4FF1227FA9080007403F0908001C9
:10416600F0908002F0908003F0908004F090800F31
:10417600F090801FF090801EF090801DF0908007D8
:0A418600F0908006F0908005F02212
:1044C200900207740FF0E4A3F0A3F0A3F0A3F0901E
:1044D200020F7403F0A3746BF09002A174FFF0A3B7
:0F44E200F09002A4F0A3F0E490020DF0A3F022FA
:03497B00024936B8
:10353B0090021BE06002A1D9900209E07002A1D9B0
:10354B0090020EE064016002A1D99001B2E0FFC3CA
:10355B009425502C75C001EF25E02456F582E434F8
:10356B001FF583E493FC740193FDECF5D18DDF7FA4
:10357B000212497E9001B2E004F090021B7464F0D9
:10358B009001B2E0642570469001F6E0FFC39425EC
:10359B00502C75C001EF25E0249EF582E4341FF515
:1035AB0083E493FC740193FDECF5D18DDF7F021264
:1035BB00497E9001F6E004F090021B7464F09001D8
:0F35CB00F6E0B42509E49001B2F09001F6F02289
:10446000750D00750E64EF60277BFF7A1F79357D2F
:104470000612421D75C003E50DF5D1850EDFAB0EAA
:10448000AA0D7D007C487F011248A57F0812497E55
:014490002209
:10484400E4F50DF50E75C001E50DF5D1850EDF7F9C
:044854000202497E95
:0627FA00EF24FF92912282
:103BBA00900208E0B40110900217E0C39401400497
:103BCA00E4F080037FFF229001AAE014601C1460D5
:103BDA003F24027049A2A0E4339001ABF09001AAFD
:103BEA007401F0E49001ACF08039A2A0E433FF90B4
:103BFA0001ABE06F600280269001ACE004F0E0C304
:103C0A009405401F9001AA7402F0A2A0E433FF2297
:103C1A00A2A0E433FF9001ABE06F60078000E4905C
:053C2A0001AAF07FFF7C
:013C2F002272
:10425E00EF750D00F50E14601214601714601C2417
:10426E0003701D750D48750E008015750D36750E93
:10427E00B0800D750D27750E108005E4F50DF50E49
:0F428E0075C001E50DF5D1850EDF7F0202497E77
:0D49050075C00175D1008FDF7F0202497E71
:1033FB0090030FA3A3A3E05401FF9001ADE0146071
:10340B0020146042146066240360028198EF607D93
:10341B009001AD7401F0900200E4F0A37403F0800E
:10342B006CEF601B900200E07002A3E0705F9001F4
:10343B00AD7402F0900200E4F0A37496F0804EE4B9
:10344B009001ADF08047EF601C900200E07002A38A
:10345B00E0703A9001AD7403F0900200E4F0A374B5
:10346B001EF07F0222E49001ADF07F0122EF601588
:10347B00900200E07002A3E07013900200F0A374BE
:0F348B001EF07F0322E49001ADF07F04227F004A
:01349A00220F
:10100000E490027FF0900218E0C3940150028193B3
:10101000E4F0122CE390027FEFF0603390020DE0D9
:10102000B40102800790020DE0B4020F7F11122973
:101030004DE4FF12425EE490020DF09001FCE0608E
:101040000EE4F09002D67411F09002D47401F09086
:10105000027FE024F7B40B00400261D890106625AF
:10106000E05002058373017C218221DE21EB413BAC
:10107000413B416341B541B541FB6186900209E0C6
:10108000FFB4031F9001AEE004F0900204E0700290
:1010900061D8E4F090020904F09002D6F09002D4F6
:1010A000F061D890020BE06052EFB405149002AFEB
:1010B000E09002A1F09002B0E09002A2F07F0580E3
:1010C00019900209E0B406179002AFE09002A4F074
:1010D0009002B0E09002A5F07F061220008015E497
:1010E000FF1248D79002B0E0FF1248E79002AFE04D
:1010F000FF12000EE490020BF061D8900209E0B4F8
:1011000004227403F09002D6F09002D47401F0909F
:10111000020FE0FEA3E0FF120D3D9001AEE0FF12D2
:101120000FF761D8900209E0FFB4010E7402F0904D
:1011300002D6F09002D414F061D8EFB402159002F8
:10114000097405F09002D614F09002D47401F07F77
:10115000058018900209E0B405167406F09002D6D6
:101160007404F09002D47401F07F0612200061D85C
:10117000900209E06406600261D87404F09002D61F
:10118000612D900209E0FF64016009EF64026004D0
:10119000EFB4040D9002B2E09002AFF09002B38081
:1011A00024900209E0FFB4050D9002A1E09002AF87
:1011B000F09002A2800FEFB406109002A4E090021B
:1011C000AFF09002A5E09002B0F0900209E0640355
:1011D000700261D890020BE0600261D861157BFF5C
:1011E0007A1F793C7D0712421D61D890020BE0FF07
:1011F0006002804E900209E0FFB401079002D674AD
:1012000006612DEFB40324900210E024FFF0900259
:101210000FE034FFF0C3A3E0946B90020FE094035F
:1012200050077404F0A37438F06162900209E0FF83
:101230006404700261D8EF640561D890020BE0FF8E
:101240006005123C3061D8900209E0FF6401600C37
:10125000EF64026007EF6403600261D8E4FF1246A6
:1012600098807890020BE0FF60028050900209E0C5
:10127000FFB401079002D67407612DEFB4032690E6
:101280000210E004F0700690020FE004F0D3900228
:1012900010E0943890020FE0940440077403F0A328
:1012A000746BF06162900209E0FF6404700261D81F
:1012B000EF640561D890020BE0FF6005123D7D618F
:1012C000D8900209E0FF6401600CEF64026007EF50
:1012D0006403600261D87F011246989002D67408B8
:1012E000F09002D47401F090020CF09002A074030C
:1012F000F0900207E0FF12300061D890020BE0FF8F
:10130000B4010E9002AE7410F090020B7402F06102
:10131000D8EFB4020B9002AE7410F090020B801163
:10132000900209E0FFB4010E9002D67409F0900219
:10133000D47401F061D8EF6403600261D89001FDBC
:10134000E0603EE4F0900213E0D39400402C900162
:10135000B5E0FFA3E090020FCFF0A3EFF0E490021E
:1013600014F090020FE0FEA3E0FF120D3D90020F7B
:10137000E0FEA3E0FF123920805EE4900213F080CB
:1013800057123F098052900209E0B401077F0D1205
:10139000294D8044900209E0B4033DE4900205F039
:1013A000900213F090020FE0FFA3E0A3CFF0A3EFB1
:1013B000F090020F7403F0A3746BF0FF7E031239F8
:1013C0002090020FE0FEA3E0FF120D3D9001FD749E
:1013D00001F090021A740AF01233FB9001F9EFF059
:1013E0007002819390020DE0B40102800790020D1B
:1013F000E0B4020AE4FF12425EE490020DF09001B4
:10140000FCE0600EE4F09002D67411F09002D47407
:1014100001F09001F9E06401702D900209E0607321
:1014200090020EE004F0E0FF12494190020EE0D37A
:1014300094034002E4F07F1112294D90020EE0FF68
:101440006401604F02425E9001F9E06402704490D2
:1014500001F704F09001F5E004F0E0FF124941903B
:1014600001F5E0FFB401101249419001F7E0FF12CD
:1014700049411248448009E49001F7F09001F5F0E9
:10148000900209E0B4010C9002D6740FF09002D4DF
:031490007401F0F4
:011493002236
:0E421D00900280EBF0A3EAF0A3E9F0A3EDF02D
:10422B00E4A3F0900283E0FFA3E0C39F502490022D
:10423B0080E0FBA3E0FAA3E0F9120164FF1249410D
:10424B00900281E475F001120218900284E004F0F0
:02425B0080D110
:01425D00223E
:103D7D00EF64017039900209E0FE64056004EEB451
:103D8D00061E9002AFE0FEB4FF03E48009EE900240
:103D9D00AFB4170774FFF0A3F08025E004F0802086
:103DAD009002AFE004F0E0B41816E4F08012EFB426
:103DBD00020E9002B0E004F0E0C3943C4002E4F047
:103DCD009002AE7410F09002A97403F0900209E015
:0B3DDD00FF90020BE0FD7B01020800DC
:103C3000EF6401703C900209E0FE64056004EEB49C
:103C4000061F9002AFE0FE700774FFF0A3F080340F
:103C5000EE9002AFB4FF087417F0E4A3F080258063
:103C6000209002AFE070057417F080189002AF80CA
:103C700010EFB4020F9002B0E07003743CF09002B9
:103C8000B0E014F09002AE7410F09002A97403F04A
:0F3C9000900209E0FF90020BE0FD7B01020800AB
:10469800EF700D900207E0D394004017E014800FEC
:1046A800EFB4010F900207E0C3941F5006E004F036
:0646B8007F01227F0022B9
:103674009002A1E0FFB4FF099002A4E0F47002E11B
:103684000890020DE0707D9002B4E07077EFF46072
:10369400389002B2E0FF9002A1E0B5072C9002B38B
:1036A400E0FF9002A2E0B507207BFF7A1F79447DFA
:1036B4000812421D90020D7401F0E49001B2F090E2
:1036C40002027417F0A37470F09002A4E0FFF46097
:1036D400339002B2E0FEEFB5062AA3E0FF9002A504
:1036E400E0B507207BFF7A1F794D7D0812421D90BB
:1036F400020D7402F0E49001B2F09002027417F02B
:05370400A37470F02227
:103FB90090021BE0703C90020DE060369001B2E087
:103FC900FFC3941E502C75C001EF25E02456F582DD
:103FD900E4341FF583E493FC740193FDECF5D18D72
:103FE900DF7F0212497E9001B2E004F090021B7457
:033FF9000AF022A9
:1046E1009001B1E0B4011A900206E0701490020F3B
:1046F100E0FEA3E0FF120D3D1240FA9001B17402F9
:02470100F022A4
:10280000900209E06403600AE49001AFF09001FDDA
:10281000F0229001FDE07002214C90021AE060026B
:10282000214C9001AFE06064E4F0900210E004F00D
:10283000700690020FE004F0D3900210E0943890FC
:10284000020FE094044035E49001FDF0900205E0B1
:10285000D3940040169001B5E0FFA3E090020FCFA3
:10286000F0A3EFF0E4900214F0211A900211E0FFBF
:10287000A3E090020FCFF0A3EFF0211A9001FAE04D
:10288000FEA3E0FF1239209001FA213E1245D1EF5C
:10289000603890020FE0FEA3E0FF900205E025E023
:1028A00024B5F582E43401F583EEF0A3EFF0900255
:1028B00005E004F0E0FF900213F0122BBC9001AF92
:1028C0007401F090021A7464F022900210E004F097
:1028D000700690020FE004F0D3900210E09438905C
:1028E000020FE094044049E49001FDF0900205E0FD
:1028F000D3940040169001B5E0FFA3E090020FCF03
:10290000F0A3EFF0E4900214F0800F900211E0FFCA
:10291000A3E090020FCFF0A3EFF090020FE0FEA330
:10292000E0FF120D3D90020FE0FEA3E0FF02392010
:1029300090020FE0FEA3E0FF12392090020FE0FEAC
:0C294000A3E0FF120D3D90021A740AF093
:01294C002268
:103F0900900213E0FFD39400404EA3E02401FDE4A6
:103F190033FCD3EF9DEC6480F87480984005E0048D
:103F2900F08005E4900214F0900214E025E024B535
:103F3900F582E43401F583E0FFA3E090020FCFF0AE
:103F4900A3EFF0900214E004FF122BBC9001F87467
:093F590001F09001B07464F02243
:104623009001F8E060209001B0E0701A9001F8F07A
:1046330090020FE0FEA3E0FF120D3D90020FE0FE9B
:07464300A3E0FF1239202261
:1035DA009080197402F0908018F0C2B1C2B0908045
:1035EA000CF090800DF0C294C29590800E7402F097
:1035FA00C2961200269080007401F0908001F0902B
:10360A008002F0908003F0908004F090800FF09098
:10361A00801FF090801EF090801DF0908007F0903F
:10362A008006F0908005F09002827407F0A3E4F01F
:10363A00A37402F0E4FB7D01FF1244F153D8FDE4C8
:10364A00900282F0A3741FF0A374FEF07B01E4FDE4
:10365A00FF123D0E9001FE741FF0A374FEF0E4F514
:0A366A00A1E58654F04404F5862221
:103800001217F943A108E5A130E2FBE58654F04424
:103810000CF586E4900282F0A37414F0A3E4F07B2C
:1038200001FDFF123D0E9001FE7414F0A3E4F09030
:1038300080007403F0908001F0908002F09080038B
:10384000F0908004F090800FF090801FF090801E28
:10385000F090801DF0908007F0908006F090800539
:10386000F09002827407F0A3E4F0A37402F0E4FB8A
:103870007D017F021244F19080197403F09080184A
:10388000F090800E7406F090801CF07F0202498157
:103162005402B900090A0B00000C0D0E00000F10EA
:0F317200110000121314004102B7FF4102B80010
:103A3900E4900280F0A3F0900283F0A374FFF0E415
:103A4900900282F0124977E5B930E5FB43B920903D
:103A59000283E0C395BD5003E5BDF0900284E0D335
:103A690095BD4003E5BDF0AFBD900281E02FF09018
:103A79000280E03400F0900282E004F0E0C3941286
:103A890040C2900284E0FF900283E02FFFE433FEFE
:103A9900C3900281E09FF0900280E09EF0E0C4F8BC
:103AA90054F0C868FEA3E0C4540F48FF900280EEAA
:043AB900F0A3EFF097
:013ABD0022E6
:10435300123A397417C39F40037F0022EFC3941AA4
:10436300400874289F40037F0122EFC3945A4008FA
:1043730074689F40037F0222EFC394804008748EC9
:084383009F40037F03227FFF2E
:01438B00220F
:102CE3007F0412495D7F0A7E0012482E12435390DF
:102CF30002B8E0146029146062147002A1A92403CD
:102D03006002A1F19002B7EFF0F47002A1F6900215
:102D1300CDE4F0A37405F09002B87401F0A1F6902D
:102D230002B7E0FE6F6005E4A3F0A1F6D39002CEF4
:102D3300E094009002CDE0940040037F00229002D3
:102D4300CDE4F0A37496F09002B87402F0EE75F03F
:102D530005A424B9F582E43402A1EC9002B7E0FEA5
:102D63006F6011E4A3F0EE75F005A424BAF582E4D4
:102D730034028075D39002CEE094009002CDE094AB
:102D83000040037F00229002CDE4F0A3741EF09074
:102D930002B87403F09002B7E075F005A424BBF504
:102DA30082E4340280439002B7E0FE6F6011E4A333
:102DB300F0EE75F005A424BDF582E43402802AD335
:102DC3009002CEE094009002CDE0940040037F0097
:102DD300229002CDE4F0A3741EF09002B7E075F0E8
:102DE30005A424BCF582E43402F583E0FF22E490D9
:052DF30002B8F07F00B2
:012DF80022B8
:100F030061742B6D6F64630061742B6D6F64640097
:100F130061742B6D6F64650061742B6D6F64660083
:100F230061742B707265760061742B766F6C00614F
:100F3300742B6E6578740061742B706C6179006139
:100F4300742B736972690061742B6163636500615B
:100F5300742B72656A650061742B63616C6C00614C
:100F6300742B646973630061742B74747773006109
:100F7300742B72696E310061742B72696E32006D6D
:100F83006F6461006D6F6462006D6F6463006D6F09
:100F93006464006D6F6465006D6F646600707265F4
:100FA30076006E657874006469736300636F6E6EB8
:100FB30000706C6179007061757300736972690008
:100FC30063616C6C0074656C650073746172006DB1
:100FD300757465006261747400766F6C0072696E7B
:100FE300310072696E320074747773000000000080
:040FF30000000000FA
:103181004102D1004102E0004102CF004102D000E2
:05294D00900280EFF094
:1029520078817C027D017BFF7A0F79EF7E007F0810
:1029620012013EE4FF900280E014B41100400241E3
:102972009290297D25E05002058373219F21AD218C
:10298200BB21C9419221D7410121E5410F411D419E
:102992002B41394147415541634171417F78817CE7
:1029A200027D017BFF7A0F7903418B78817C027D66
:1029B200017BFF7A0F790B418B78817C027D017B51
:1029C200FF7A0F7913418B78817C027D017BFF7A3C
:1029D2000F791B418B78817C027D017BFF7A0F7915
:1029E20023418B78817C027D017BFF7A0F792B7EDC
:1029F200007F0612013E900207E0900287F02278E3
:102A0200817C027D017BFF7A0F7932807C78817C28
:102A1200027D017BFF7A0F793A806E78817C027D9C
:102A2200017BFF7A0F7942806078817C027D017B95
:102A3200FF7A0F794A805278817C027D017BFF7A8E
:102A42000F7952804478817C027D017BFF7A0F7975
:102A52005A803678817C027D017BFF7A0F79628011
:102A62002878817C027D017BFF7A0F796A801A784F
:102A7200817C027D017BFF7A0F7972800C78817CE8
:102A8200027D017BFF7A0F797A7E007F0712013E79
:012A92002221
:103B41009002D3E070069002CFF0A3F09002D374FC
:103B51000AF09002CFE014601614602114602F2443
:103B610003704EEF6461704E9002CF04F08047EF16
:103B7100B474089002CF7402F0803B8034EFB42B10
:103B81000B9002CF7403F0E4A3F0802A802390020B
:103B9100D0E024D7F582E43402F583EFF09002D02F
:103BA100E004F0E0C39404400DE49002CFF07F0103
:083BB10022E49002CFF07F0036
:013BB90022E9
:101C66009002D2E07002E134E49002D2F078D77CA0
:101C7600027D017BFF7A0F7982FE7F041205CFEF8A
:101C86007002E13078D77C027D017BFF7A0F79877D
:101C96007E007F041205CFEF7002E13078D77C0218
:101CA6007D017BFF7A0F798C7E007F041205CFEFD2
:101CB6007002E13078D77C027D017BFF7A0F799143
:101CC6007E007F041205CFEF7002E13078D77C02E8
:101CD6007D017BFF7A0F79967E007F041205CFEF98
:101CE600701A9002D4F090020FE0FEA3E0FF120DEE
:101CF6003D9002067464F09001B1C1A778D77C02CA
:101D06007D017BFF7A0F799B7E007F041205CFEF62
:101D16007002E13078D77C027D017BFF7A0F79A0D3
:101D26007E007F041205CFEF7002E13078D77C0287
:101D36007D017BFF7A0F79A57E007F041205CFEF28
:101D46007002E13078D77C027D017BFF7A0F79AA99
:101D56007E007F041205CFEF70069002D104F022B8
:101D660078D77C027D017BFF7A0F79AF7E007F04F6
:101D76001205CFEF70079002D17402F02278D77C5B
:101D8600027D017BFF7A0F79B47E007F041205CFB6
:101D9600EF7002E13078D77C027D017BFF7A0F7904
:101DA600B97E007F041205CFEF7002E13478D77C4C
:101DB600027D017BFF7A0F79BE7E007F041205CF7C
:101DC600EF7002E13478D77C027D017BFF7A0F79D0
:101DD600C37E007F041205CFEF7002E13078D77C16
:101DE600027D017BFF7A0F79C87E007F041205CF42
:101DF600EF7002E13478D77C027D017BFF7A0F79A0
:101E0600CD7E007F041205CFEF704E9002E004F005
:101E1600900209E0FFB401089002D67401F0802D0B
:101E2600EFB402089002D67402F08021EFB40308E2
:101E36009002D67403F08015EFB404028009EF64B3
:101E4600056004EFB406069002D67404F09002D43E
:101E56007401F0E49002DFF02278D77C027D017BEA
:101E6600FF7A0F79D27E007F041205CFEF7036908D
:101E76000209E0B403069002047401F09002E0E067
:101E8600600EE4F09002D67408F09002D47401F06B
:101E96009001FCE07002E1349002D67410F09002DA
:101EA600D47401F02278D77C027D017BFF7A0F790A
:101EB600D77E007F041205CFEF701190020874FEE2
:101EC600F012438CE4FF1227FA0235DA78D77C0247
:101ED6007D017BFF7A0F79DC7E007F031205CFEF51
:101EE6007002804678D77C027D017BFF7A0F79E00D
:101EF6007E007F041205CFEF7002802E78D77C0219
:101F06007D017BFF7A0F79E57E007F041205CFEF16
:101F16007002801678D77C027D017BFF7A0F79EA02
:0F1F26007E007F041205CFEF70049002D4F022EA
:104703009002DFE0C3945040179002D4E06011A3FD
:10471300E09405400BA3E0FF12294DE49002D5F08D
:014723002273
:0431910041032600D0
:03000300020041B7
:01004100328C
:03000B00022EFAC8
:102EFA00C0E0C083C082C0D075D000C000C004C08A
:102F0A0005C0069001FEE0FCA3E0FDAE047805CE04
:102F1A00C313CE13D8F9F58CED541FF58A90021815
:102F2A00E004F0900217E004F090021AE0D3940053
:102F3A004003E014F0900206E0D394004003E0144A
:102F4A00F09001B0E0D394004003E014F0D3900273
:102F5A00CEE094009002CDE09400400CA3E024FF60
:102F6A00F09002CDE034FFF0D3900201E09400909B
:102F7A000200E09400400CA3E024FFF0900200E07D
:102F8A0034FFF09002DFE0C394FF5003E004F090B6
:102F9A0002D5E0C394FF5003E004F090021BE0D393
:102FAA0094004003E014F090020DE06032D39002E6
:102FBA0003E09400900202E094004023A3E024FF7F
:102FCA00F0900202E034FFF0E07002A3E07010908B
:102FDA0002D67410F09002D47401F09001FCF0D083
:102FEA0006D005D004D000D0D0D082D083D0E03231
:030023000240A8F0
:1040A800C0E0C0F0C083C082C0D075D000C000C0DE
:0D40B80001C002C003C004C005C006C0075F
:1040C500309810C298AF99123B41EF60069002D22A
:0A40D5007401F0309904C299C20C86
:1040DF00D007D006D005D004D003D002D001D00035
:0B40EF00D0D0D082D083D0F0D0E032DF
:0300430002429DD9
:10429D00C0E0C0F0C083C082C0D075D000C000C0E7
:1042AD0001C002C003C004C005C006C007E5C76059
:1042BD00031231D5D007D006D005D004D003D002DB
:0F42CD00D001D000D0D0D082D083D0F0D0E0325A
:03006B0002269ECC
:10269E00C0E0C0F0C083C082C0D075D000C000C002
:0D26AE0001C002C003C004C005C006C00783
:1026BB00E5EE30E20675EE041243C5E5EE20E102CD
:1026CB00E1D775EE02E5F4541F9002B2F0E5F35436
:1026DB003FA3F0E5F2543FA3F01245FB900000E05E
:1026EB00D394004003E014F09002A9E0D39400408F
:1026FB0003E014F0900000E0D394004005E014F0E8
:10270B00800C9002A8E004F09000007402F090029C
:10271B000CE0602A9002A0E0D394004005E014F096
:10272B00E1D790020CE4F0900209E064036002E14F
:10273B00D790020FE0FEA3E0FF120D3DE1D7900210
:10274B000BE060289002AEE0D394004003E014F05D
:10275B009002AEE0701B90020BF0900209E0FF6458
:10276B00056004EFB4060A12200080059002AEE467
:10277B00F090020BE0FD602C9002A9E0701F90021C
:10278B0009E0FF900326E0FB120800900326E060AF
:10279B0004E4F0802C9003267401F080249003262F
:1027AB00E4F0801D900209E0FF64026004EFB404C2
:1027BB00109002B2E0FFA3E0FD900209E0FB1225AE
:1027CB0016900209E0FFB40103120666E5EE30E055
:0427DB000375EE0193
:1027DF00D007D006D005D004D003D002D001D0004E
:0B27EF00D0D0D082D083D0F0D0E032F8
:104880003F065B4F666D7D077F6F777C395E797180
:03489000003E7671
:10319500470297000000000000004102A90041021B
:1031A500AE004102A0004102A8004102A700410271
:0A31B5009F0041029E0041029600B7
:0707F9008FC0AF058FE32262
:1006660090027D7402F09002A8E0D394094041E420
:10067600F09002A7E004F0E0D394094008E4F0907B
:10068600029FE004F090029FE0D394094008E4F052
:1006960090029EE004F090029EE0D394094011E49B
:1006A6009002A8F09002A7F090029FF090029EF0B0
:1006B60090029EE09002AAF090029FE09002ABF0BA
:1006C6009002A7E09002ACF09002A8E09002ADF094
:1006D600E4FE74972EF582E43402F583C083C0826B
:1006E600E0FD9002AAE090488093FCA806088002EC
:1006F600C313D8FC54014DD082D083F074972EF5E5
:1007060082E43402F583E025E0F074972EF582E466
:100716003402F583C083C082E0FD9002ABE09048CE
:100726008093FCA806088002C313D8FC54014DD060
:1007360082D083F074972EF582E43402F583E025A7
:10074600E0F074972EF582E43402F583C083C0820C
:10075600E0FD9002ACE090488093FCA80608800279
:10076600C313D8FC54014DD082D083F074972EF574
:1007760082E43402F583E025E0F074972EF582E4F6
:100786003402F583C083C082E0FD9002ADE090485C
:100796008093FCA806088002C313D8FC54014DD0F0
:1007A60082D083F074972EF582E43402F583E02537
:1007B600E0F00EEE64076002C1D8EFB401129002B9
:1007C600D1E06005B40102800090029AE04401F095
:1007D600E4FE8EC074972EF582E43402F583E0F5CC
:1007E600E374972EF582E43402F583E4F00EEEB45A
:0207F60007E01A
:0107F80022DE
:0525160090027DEBF0D6
:10251B00E4FEEF75F00A849002AAF0EF75F00A84DE
:10252B00A3E5F0F0ED75F00A84A3F0ED75F00A84E5
:10253B00A3E5F0F074972EF582E43402F583C083A3
:10254B00C082E0FF9002AAE090488093FDA80608A5
:10255B008002C313D8FC54014FD082D083F0749700
:10256B002EF582E43402F583E025E0F074972EF526
:10257B0082E43402F583C083C082E0FF9002ABE0BB
:10258B0090488093FDA806088002C313D8FC540121
:10259B004FD082D083F074972EF582E43402F5830A
:1025AB00E025E0F074972EF582E43402F583C083C6
:1025BB00C082E0FF9002ACE090488093FDA8060833
:1025CB008002C313D8FC54014FD082D083F0749790
:1025DB002EF582E43402F583E025E0F074972EF5B6
:1025EB0082E43402F583C083C082E0FF9002ADE049
:1025FB0090488093FDA806088002C313D8FC5401B1
:10260B004FD082D083F074972EF582E43402F58399
:10261B00E025E0F00EEE64076002A13F900296E029
:10262B006004E4F080069002967401F090029BE047
:10263B00FF900296E0FDEF4D90029BF090027DE043
:10264B00B4020790029CE04401F09002A1E0B4FFB9
:10265B0005A3E0F46007900297E04401F09002A418
:10266B00E0B4FF05A3E0F46007900298E04401F0AA
:10267B00E4FE8EC074972EF582E43402F583E0F508
:10268B00E374972EF582E43402F583E4F00EEEB496
:02269B0007E056
:01269D00221A
:05200000900280EFF0EA
:10200500E4FCEF640570209002A1E0FFF4602EA3CC
:10201500E0FBB4FF028026AE07AC03EE75F00A8440
:102025009002AAF0EE8035900280E064067045903B
:1020350002A4E0FFF46006A3E0FBB4FF119002AA3E
:102045007410F0E4A3F0A3740FF0A3F08026AE079C
:10205500AC03EE75F00A849002AAF0EF75F00A84DD
:10206500A3E5F0F0EC75F00A84A3F0EC75F00A84B2
:10207500A3E5F0F0E4FD74972DF582E43402F583D1
:10208500C083C082E0FF9002AAE090488093FEA83A
:1020950005088002C313D8FC54014FD082D083F0C9
:1020A50074972DF582E43402F583E025E0F074970A
:1020B5002DF582E43402F583C083C082E0FF9002EF
:1020C500ABE090488093FEA805088002C313D8FCB6
:1020D50054014FD082D083F074972DF582E43402F9
:1020E500F583E025E0F074972DF582E43402F5835D
:1020F500C083C082E0FF9002ACE090488093FEA8C8
:1021050005088002C313D8FC54014FD082D083F058
:1021150074972DF582E43402F583E025E0F0749799
:102125002DF582E43402F583C083C082E0FF90027E
:10213500ADE090488093FEA805088002C313D8FC43
:1021450054014FD082D083F074972DF582E4340288
:10215500F583E025E0F00DED64076002017B900258
:1021650080E0FEB405189002A1E0F4600CA3E0F451
:10217500600790029BE04401F0900297801AEEB44C
:10218500061A9002A4E0F4600CA3E0F46007900244
:102195009BE04401F0900298E04401F0E4FD8DC01D
:1021A50074972DF582E43402F583E0F5E374972DF9
:0E21B500F582E43402F583E4F00DEDB407E0AA
:0121C30022F9
:0A080000900280EDF0A3EBF0AB07CF
:10080A00EF64056007EF6406600221549002AFE0CE
:10081A00F46007A3E0F4600221549002AA7410F075
:10082A00E4A3F0A3740FF0A3F0900281E070022118
:10083A003CE4FE74972EF582E43402F583C083C04B
:10084A0082E0FD9002AAE090488093FCA806088006
:10085A0002C313D8FC54014DD082D083F074972E72
:10086A00F582E43402F583E025E0F074972EF582F0
:10087A00E43402F583C083C082E0FD9002ABE090CD
:10088A00488093FCA806088002C313D8FC54014D83
:10089A00D082D083F074972EF582E43402F583E097
:1008AA0025E0F074972EF582E43402F583C083C004
:1008BA0082E0FD9002ACE090488093FCA806088094
:1008CA0002C313D8FC54014DD082D083F074972E02
:1008DA00F582E43402F583E025E0F074972EF58280
:1008EA00E43402F583C083C082E0FD9002ADE0905B
:1008FA00488093FCA806088002C313D8FC54014D13
:10090A00D082D083F074972EF582E43402F583E026
:10091A0025E0F00EEE64076002013DEBB405079096
:10092A000297E04401F0EB6406600281B1900298FC
:10093A0081ADE4FE74972EF582E43402F583E0C4B7
:10094A0054F0F00EEEB407EC81B19002AFE0FF75FF
:10095A00F00A849002AAF0EF75F00A84A3E5F0F099
:10096A009002B0E0FF75F00A849002ACF0EF75F0E7
:10097A000A84A3E5F0F0900280E064016002611A43
:10098A00A3E07002418EE4FE74972EF582E43402ED
:10099A00F583C083C082E0FF9002AAE0904880936A
:1009AA00FDA806088002C313D8FC54014FD082D098
:1009BA0083F074972EF582E43402F583E025E0F0A3
:1009CA0074972EF582E43402F583C083C082E0FF77
:1009DA009002ABE090488093FDA806088002C313FA
:1009EA00D8FC54014FD082D083F074972EF582E45C
:1009FA003402F583E025E0F074972EF582E43402A0
:100A0A00F583C083C082E0FF9002ACE090488093F7
:100A1A00FDA806088002C313D8FC54014FD082D027
:100A2A0083F074972EF582E43402F583E025E0F032
:100A3A0074972EF582E43402F583C083C082E0FF06
:100A4A009002ADE090488093FDA806088002C31387
:100A5A00D8FC54014FD082D083F074972EF582E4EB
:100A6A003402F583E025E0F00EEE6407600221927D
:100A7A00EBB40507900297E04401F0EB64066002CC
:100A8A0081AA8126E4FE74972EF582E43402F58366
:100A9A00E025E025E0F074972EF582E43402F58330
:100AAA00C083C082E0FF9002ACE090488093FDA82A
:100ABA0006088002C313D8FC54014FD082D083F0B9
:100ACA0074972EF582E43402F583E025E0F07497FA
:100ADA002EF582E43402F583C083C082E0FF9002DF
:100AEA00ADE090488093FDA806088002C313D8FCA5
:100AFA0054014FD082D083F074972EF582E43402E9
:100B0A00F583E025E0F00EEE64076002419081AAC9
:100B1A00900280E06402600281AAA3E07002812F41
:100B2A00E4FE74972EF582E43402F583C083C08212
:100B3A00E0FF9002AAE090488093FDA80608800290
:100B4A00C313D8FC54014FD082D083F074972EF58A
:100B5A0082E43402F583E025E0F074972EF582E40E
:100B6A003402F583C083C082E0FF9002ABE0904874
:100B7A008093FDA806088002C313D8FC54014FD005
:100B8A0082D083F074972EF582E43402F583E0254F
:100B9A00E0F074972EF582E43402F583C083C082B4
:100BAA00E0FF9002ACE090488093FDA8060880021E
:100BBA00C313D8FC54014FD082D083F074972EF51A
:100BCA0082E43402F583E025E0F074972EF582E49E
:100BDA003402F583C083C082E0FF9002ADE0904802
:100BEA008093FDA806088002C313D8FC54014FD095
:100BFA0082D083F074972EF582E43402F583E025DF
:100C0A00E0F00EEE64076002612CEBB40507900277
:100C1A0097E04401F0EB6406600281AA900298E032
:100C2A004401F0807BE4FE74972EF582E43402F5E9
:100C3A0083C083C082E0FF9002AAE090488093FDBF
:100C4A00A806088002C313D8FC54014FD082D0836F
:100C5A00F074972EF582E43402F583E025E0F0740F
:100C6A00972EF582E43402F583C083C082E0FF90B8
:100C7A0002ABE090488093FDA806088002C313D80F
:100C8A00FC54014FD082D083F074972EF582E4345D
:100C9A0002F583E033333354F8F00EEE64077087BD
:100CAA0090029BE04401F0EB6401701D9002D1E0D8
:100CBA006003B4010F900281E090029A6002804CB6
:100CCA00E0F0804C90029A8043EBB4020590029CBB
:100CDA00803AEB64057019900280E06002703190EE
:100CEA0002AFE0B4FF05A3E0F46025900297801CF0
:100CFA00EB6406701B900280E0600270139002AFF2
:100D0A00E0B4FF05A3E0F46007900298E04401F024
:100D1A00E4FE8EC074972EF582E43402F583E0F582
:100D2A00E374972EF582E43402F583E4F00EEEB410
:020D3A0007E0D0
:010D3C002294
:10300000E4FEEF75F00A849002ACF0EF75F00A84EC
:10301000A3E5F0F074972EF582E43402F583E0F036
:1030200074972EF582E43402F583E025E0F074977E
:103030002EF582E43402F583C083C082E0FF90481D
:1030400091E493FDA806088002C313D8FC54014FF5
:10305000D082D083F074972EF582E43402F583E0B9
:1030600025E0F074972EF582E43402F583C083C026
:1030700082E0FF9002ACE090488093FDA8060880B3
:1030800002C313D8FC54014FD082D083F074972E22
:10309000F582E43402F583E025E0F074972EF582A2
:1030A000E43402F583C083C082E0FF9002ADE0907B
:1030B000488093FDA806088002C313D8FC54014F32
:1030C000D082D083F074972EF582E43402F583E049
:1030D00025E0F00EEE640760020114E4FE8EC07479
:1030E000972EF582E43402F583E0F5E374972EF52C
:0D30F00082E43402F583E4F00EEEB407E054
:0130FD0022B0
:040D3D00AB07AA0650
:100D4100E4900280F07C037DE81201C39002AAEFD7
:100D5100F07C007D64AF03AE021201C37C007D0A0A
:100D61001201C3A3EDF07C007D64AF03AE0212015A
:100D7100C37E007F0ACFCDCFCECCCE1201C3A3EF6D
:100D8100F0AE02AF037C007D0A1201C3A3EDF09027
:100D910002AAE070037410F0E4900280F0900280E7
:100DA100E0FF2497F582E43402F583C083C082E03A
:100DB100FE9002AAE090488093FDA807088002C334
:100DC10013D8FC54014ED082D083F0900280E0FF12
:100DD1002497F582E43402F583E025E0F074972F3F
:100DE100F582E43402F583C083C082E0FF9002AB58
:100DF100E090488093FE900280E0FDEEA805088017
:100E010002C313D8FC54014FD082D083F074972DC4
:100E1100F582E43402F583E025E0F074972DF58244
:100E2100E43402F583C083C082E0FF9002ACE0901D
:100E3100488093FEA805088002C313D8FC54014FD3
:100E4100D082D083F074972DF582E43402F583E0EB
:100E510025E0F074972DF582E43402F583C083C058
:100E610082E0FF9002ADE090488093FEA8050880E3
:100E710002C313D8FC54014FD082D083F074972D54
:100E8100F582E43402F583E025E0F0900280E0048D
:100E9100F0E064076002A19E900299E04401F090A5
:100EA100029DE04401F09002A1E0B4FF05A3E0F44B
:100EB1006007900297E04401F09002A4E0B4FF05BE
:100EC100A3E0F46007900298E04401F0E49002800E
:100ED100F0900280E0FFC3940750268FC074972FD3
:100EE100F582E43402F583E0F5E3900280E0249793
:100EF100F582E43402F583E4F0900280E004F080AE
:010F0100D01F
:010F020022CC
:102BBC00E49002AA04F0EFD3946340027F63EF75B4
:102BCC00F00A849002ACF0EF75F00A84A3E5F0F003
:102BDC00E4FE74972EF582E43402F583C083C08240
:102BEC00E0FF90488CE493FDA806088002C313D83C
:102BFC00FC54014FD082D083F074972EF582E434CC
:102C0C0002F583E025E0F074972EF582E43402F5AA
:102C1C0083C083C082E0FF904892E493FDA806082D
:102C2C008002C313D8FC54014FD082D083F0749728
:102C3C002EF582E43402F583E025E0F074972EF54E
:102C4C0082E43402F583C083C082E0FF9002ACE0E2
:102C5C0090488093FDA806088002C313D8FC540149
:102C6C004FD082D083F074972EF582E43402F58332
:102C7C00E025E0F074972EF582E43402F583C083EE
:102C8C00C082E0FF9002ADE090488093FDA806085A
:102C9C008002C313D8FC54014FD082D083F07497B8
:102CAC002EF582E43402F583E025E0F00EEE6407A5
:102CBC00600261DEE4FE8EC074972EF582E434026D
:102CCC00F583E0F5E374972EF582E43402F583E4A2
:062CDC00F00EEEB407E06B
:012CE20022CF
:10438C00E4FF74972FF582E43402F583E0C454F013
:10439C00F00FEFB407ECE4FF8FC074972FF582E4B5
:1043AC003402F583E0F5E374972FF582E43402F5DB
:0843BC0083E4F00FEFB407E009
:0143C40022D6
:0649120090800DF0E4FFAF
:06491800900295EFF02271
:1048180090800C7402F090800DF0D294D2957F01B4
:06482800124918C295229E
:101FE60090800D7402F0C294C2957F01124918D2F6
:091FF600947F01124918D29522D2
:10480000C2947402124912C2957F01124918D294BF
:084810007F01124918C2942235
:1047C000C29490800D7402F0D295E4FF124918D281
:0947D000947F01124918C29422E1
:1047D900C2947401124912D294E4FF124918209527
:0847E900030F80027F00C2945F
:0147F10022A5
:02449100AE0774
:1044930090800D7402F0C294E4FF124918E4FDEE1B
:1044A30030E704D2958002C295EE25E0FED2947FD8
:0E44B30001124918C2940DEDB408E41247D965
:0144C10022D8
:10478600AC05EC60171C120164FF124491EF60093E
:0F479600740129F9E43AFA80E97F00227F0122B9
:10464A00E4FFC29490800D7401F0E4FEEF25E0FFD0
:10465A00D294309504EF4401FFC2940EEEB408ECF4
:06466A0090800D7402F0C7
:014670002227
:10485800ED600E1D12464AEF12019FED1247C0800F
:04486800EF7F0122BB
:103DE800C00100420C0016A880003AC65EC600005A
:103DF800406E2D805803580458045804004790001A
:103E0800F587000900F141C041E0506F5592007DEF
:103E180010E00780300040061F9B4C2B8110458026
:103E2800153FAF4004811B2A2D04802F178AD349E0
:103E38001142000000000000000000000000000027
:023E4800000078
:0B31BF004802EDC00100420C0086A891
:0E3E4A0090028EEBF0A3EAF0A3E9F0A3EDF0F6
:103E58001248187F20124491E4900294F090029145
:103E6800E0FF900294E0FEC39F503590028EE0FB85
:103E7800A3E0FAA3E0F975F002EEA4F58285F083D9
:103E880012026FACF0900292F0ECFFA3F012449192
:103E9800900292E0FF124491900294E004F080BDF9
:033EA800021FE610
:063ABE007B017A02797F12
:0E3AC400900283EBF0A3EAF0A3E9F0A3EDF08B
:103AD2001248187F21124491E4900289F0900286E4
:103AE200E0FF900289E0C39F505212464A9002883A
:103AF200EFF012480012464A900287EFF0900286D9
:103B0200E014FF900289E06F600512480080031202
:103B120047C0900288E0FE900287E0FDEDFF900230
:103B220083E0FBA3E475F00212022EA9F0FAEE8FF5
:0F3B3200F01202A7900289E004F080A1021FE6C2
:10431800900318EFF0A3ECF0A3EDF01248187F20FB
:10432800124491EF601F900318E0FF12449190032C
:1043380019E0FF124491900319A3E0FF124491126F
:0B4348001FE67F0122121FE67F00220B
:0540550090031BEFF0D9
:10405A001248187F2012449190031BE0FF124491EA
:10406A001248187F2112449112464A90031CE0F02C
:10407A00A3E04FF012480090031DE0F8E4F0E89046
:10408A00031CF012464A90031CE0F0A3E04FF01222
:0D409A0047C0121FE690031CE0FEA3E0FFEC
:0140A70022F6
:104724007D027C007F021243187FC8124893E4FF85
:10473400124055E4B50707EEB458037F01227F0009
:014744002252
:090FF700EFB40101221240FA22BC
:1040FA00900280E4F0A37402F07B017A0279807D59
:10410A0001123E4A7F6412489390028074C0F0A361
:10411A007401F0FB7A027980FD123E4A7F641248EC
:10412A00937BFF7A3D79E87D29123E4A7F641248E3
:0C413A009390020FE0FEA3E0FF0239208A
:08392000900288EEF0A3EFF025
:10392800788A7C027D017BFF7A3E793A7E007F04AB
:1039380012013E900288E0FEA3E0FFC3946BEE9470
:10394800034009D3EF9438EE9404400A9002887437
:1039580003F0A3746BF0900210E0249AFF90020F1A
:10396800E034FCFEEF7806C333CE33CED8F9FF90AF
:1039780002F0E0543FFDEF4DFF9002EFEEF0A3EFB1
:10398800F09002EDE0FDA3E090028ACDF0A3EDF007
:10399800EF4410FFA3EEF0A3EFF07B017A02798ADF
:0539A8007D02023E4A11
:103C9F0078E17C027D017BFF7A3E793E7E007F08D2
:103CAF0012013E78E97C027D017BFF7A3E79467EE8
:103CBF00007F0412013E9002EDE04403FFA3E09069
:103CCF0002E1CFF0A3EFF09002F0E05410FF90026A
:103CDF00E3E4F0A3EFF07B017A0279E17D02123E7B
:103CEF004A7F0A124055EE20E6077F1E1248938046
:0E3CFF00F07F0A124055EE5407FEEF5465FFA9
:013D0D002293
:1045D1007D01123ABE90027FE030E6F47D02123A8C
:1045E100BE900281E0FEEE30E00DC313D39409E4E6
:0945F100940040037F01227F00C9
:0145FA00229E
:030000000239AD15
:0C39AD00787FE4F6D8FD7581210239F422
:0231CA00C18BB7
:0717F90043A14053A2F822B6
:0C491E0043A180E5A254F84401F5A22258
:1000260090801A7403F090801BF043A108E5A1307C
:0B003600E2FBE5A254F84403F5A2220F
:103EAB00EFC394024057EFD394085051300B2BAE15
:103EBB00A143A1E0759306759240759188E59154E5
:103ECB00C070FA859795859694E5A254F84405F54C
:103EDB00A27591C8E59154C070FAEF24FE333333C9
:103EEB0054F84480F5ADE5AD30E0FBE5A254F84461
:0D3EFB0004F5A2300B07EE4440F5A1C20B08
:013F08002296
:0C492A0043A120E5A254F84405F5A222A8
:1048C700EFC43354E04DF5A9EAF5ACAF038FAB2243
:043FFC0075AAA522DB
:06379B0090027F12040001
:1037A1009080197403F0908018F0E49001A8F0A3C0
:1037B100F090012EF0A3F0C20C7F20FEFDFC9002E0
:1037C1007FE0F8A3E0F9A3E0FAA3E0FB1202C6A8A8
:1037D10004A905AA06AB077F007E407D387C001254
:1037E1000351C3E49FFFE49EAD0775C824F5CBAE3A
:0E37F100058ECAF5CD8ECCD2CE759850D2ACD6
:0137FF0022A7
:0A494100C299D20C8F99200CFD22C0
:1043FA0090031EEBF0A3EAF0A3E9F090031EE0FBA2
:10440A00A3E0FAA3E0F9120164601790031EA3E483
:10441A0075F00112022EA9F0FA120164FF12494145
:03442A0080D92214
:0B400000900000EBF0A3EAF0A3E9F051
:10400B0090002B7401F0A37400F0A37403F09000E4
:10401B0000E0F9A3E0FAA3E0900308C9F0A3EAF0EB
:10402B00A3E9F090002BE0F9A3E0FAA3E090030BD7
:10403B00C9F0A3EAF0A3E9F07B017A00792E1241D3
:0A404B00907B017A00792E0243FAFF
:1042DC008FC0EF30E014ED33333354F8FFE5DB548B
:1042EC00F04FFF900284E04F800FAF05EF33333374
:1042FC0054F8FFE5DB54F04F4BF5DB900282E0C441
:0C430C003333335480FFA3E04FF5DC2274
:1048A5008FC0ECF5DEAF058FDDEAF5D1AF038FDF05
:0148B50022E0
:03497E008FD922AC
:05000600E5D970FC22A9
:034981008FD822AA
:10442D008FC0AF05EFC43333335480FFE5DB540F3A
:10443D004FFFAE03EEC4333354C04FFF9002FFE085
:10444D00C43354E04FFFA3E0C454F04FF5DBA3E0B9
:03445D00F5DA226B
:10457B00EDC4333354C0441C4FF5B975BAF0EBB4EA
:10458B00010F900282E0C4333354C04423F5BB8047
:0B459B000375BB23EDB40102D2E8223F
:08495D00E5BA54F04FF5BA224F
:0449770043B980229E
:10004600E5B930E5FB43B920AFBDEFFEADBC7C00A2
:10005600E42DFFEC3EC4F854F0C868FEEFC4540F1C
:0200660048FF51
:010068002275
:062FFA00438702000022E3
:0E47F200E5FF7004E5FE60037F00227F0122D8
:06496C0043870100002258
:0E48F700E5FD7004E5FC60037F00227F0122D6
:10482E00EF1FAA0670011E4A600BE4FDEDC3940F44
:05483E0050EE0D80F7B3
:014843002252
:10489300AC07AF041CEF60097F147E0012482E8022
:0248A300F12200
:10452000AC07900306E0F5E5A3E0F5E4AF03EFC4C4
:1045300054F0FFAE05EEC4333354C04FFF90030573
:0E454000E04FF5E2AF04EFC43354E0F5E122A2
:1044F100AC07900283E0F5E5A3E0F5E4AF03EFC478
:1045010054F0FFAE05EEC43354E04FFF900282E059
:0F4511004FF5E2AF04EFC43354E04410F5E1225C
:074965008FC0AF058FE322B4
:054972008FC0AFE3223D
:103D0E005389F0AE05EE25E025E0FE900282E03309
:103D1E00333354F84E4F4289EF146023146030242D
:103D2E00027039900283E0FCA3E0FDAE047805CE6C
:103D3E00C313CE13D8F9F58CED541FF58A801D9060
:103D4E000283E0FCA3E0FDECF58CEDF58A800D908E
:103D5E000283E0FCA3E0FDECF58C8D8A53A8FDAF49
:0F3D6E0003EF25E042A8900282E07002D28C227F
:1048B6008F8FD2A8D289ED24FF9288EB24FF92B87D
:0148C60022CF
:1046BE00EFC43333335480FFE5F1541F4FFFAE0583
:1046CE00EEC4333354C04FFFAE03EEC43354E04F49
:0346DE00F5F122D1
:1048D70043F1028FF27F017E0012482E53F1FD2231
:1048E70043F1028FF37F017E0012482E53F1FD2220
:10000E0043F102E5F454E04FF5F47F017E0012480F
:05001E002E53F1FD224C
:1047A50043F102EFC43354E0FFE5F4541F4FF5F431
:0B47B5007F017E0012482E53F1FD2210
:10476600EF25E025E0FFE5F154E34FFFAE05EE331C
:10477600333354F84FFFAE03EEC454F04FF5F12235
:0B4936008FECAF058FEBAF038FEA2280
:034984008FED2292
:1045A6009002327401F01241DA75C14075C20FD221
:1045B600E9C209E47819F690030F12040C00000012
:0B45C60000E490030EF090022FF022A2
:1047450090030EE0146006047016022DF93009106E
:10475500C2091232A8E490021FF0123F621218003B
:014765002231
:10349B000002005001800801800901800A01800BA5
:1034AB0001800C01800D01800E01800F01801F0136
:1034BB00801E01801D01801C018007018006018098
:1034CB00050180040180030180020180010180005D
:1034DB0000000001000000020000000400000008D2
:1034EB0000000010000000200000004000000080E1
:1034FB0000000100000002000000040000000800B2
:10350B0000001000000020000000400000008000C0
:10351B000001000000020000000400000008000091
:10352B0000100000002000000040000000800000A0
:0831CC0041021C0041021D003C
:1041DA009080117403F0E4FFEF25E025E0249BF5BD
:1041EA0082E43434F583740193547F90349F75F0DC
:1041FA000312043DE475F003A42583F583E493FBDD
:10420A00740193FA740293F9740412019F0FEFB4C4
:02421A0001C6DB
:01421C00227F
:1043C5007819E660011690021CE004F0E0C394043D
:1043D5004022E4F0FF74442FF582E43402F583E0D3
:1043E500600D74442FF582E43402F583E014F00F78
:0443F500EFB401E13F
:0143F90022A1
:1045FB00E4FF74412FF582E43402F583E0600D741F
:10460B00412FF582E43402F583E014F00FEFB4018F
:07461B00E1781AE6600116C8
:014622002275
:1031D500900270E5C0F0E4FD74017E00A80508804A
:1031E50005C333CE33CED8F9FFACC7ECFBEF5B603C
:1031F5002D7401A805088002C333D8FCF5C78DC01E
:10320500ED25E02471F582E43402F583E5CFF0ED98
:1032150025E02472F582E43402F583E5CEF00DED68
:10322500B406B5E4FDEDFF90021FE0FC2FFFE4338B
:10323500FEEF64014E701AED25E02471F582E43449
:1032450002F583E0FFA3E0900246CFF0A3EFF08004
:1032550028ED25E02471F582E43402F583E0FEA330
:10326500E0FFEC2D25E0243DF582E43402F583EE04
:10327500F0A3EFF00DEDB406AC90021FE02406FFBD
:10328500E433FED3EF9401EE648094804004D209C8
:10329500800A90021FE02406F0123F62900270E05F
:0232A500F5C072
:0132A7002204
:103F6200E4FFEFC39406504BEFFD90021FE0FE2DDD
:103F7200FDE433FCC3ED9401EC6480948040168F21
:103F8200C075C455EF04FDEDC3940650268DC0756F
:103F9200C4400D80F28FC0EE2F25E025E0249BF572
:103FA20082E43434F583740193547F044440F5C4AD
:063FB2000F80AF43C18047
:013FB80022E6
:102DF90090022FE0FF700C7819E66002C1F97602A3
:102E090004F022EFB40115E490021FF0123F629022
:102E1900022F7402F090021D7432F02290022FE00A
:102E290064026002C1F9200902C1F9C20990021DB8
:102E3900E014F06002C1F1E4781AF690027FF0E440
:102E4900FF90027FE0FE25E0243DF582E43402F59F
:102E590083E0FCA3E0FDEE75F00AA42424F582E4E6
:102E69003402F58375F002EF12043DECF0A3EDF0A6
:102E79000FEFB405CC90027FE0FF2440F582E434E3
:102E890002F583E4F0EF25E0243DF582E43402F510
:102E990083E0FCA3E0FD90027FE0FF25E02422F51A
:102EA90082E43402F583ECF0A3EDF0EF25E0243D54
:102EB900F582E43402F583E0FCA3E0FDEF25E0248C
:102EC90020F582E43402F583ECF0A3EDF07D0312E2
:102ED900454E90027FE004F0E0C394015002C148DE
:102EE90090030E7401F0C20AE490021FF0123F62CF
:012EF90022B6
:072A9300F583E0FCA3E0FD68
:052A9A00900284EFF042
:102A9F00E0F925E02422F582E43402F583E0FAA37D
:102AAF00E0C39DFEEA9C900285F0A3CEF0E9C394AB
:102ABF0001504E900284E025E025E024DBF582E40E
:102ACF003434F5831203F090030FE0F8A3E0F9A379
:102ADF00E0FAA3E05FFFEA5EFEE95DFDE85C4D4EC4
:102AEF004F601E900284E025E025E0249DF582E4EE
:102AFF003434F583E493FE740193FF7C007D3C80B6
:102B0F001C900284E025E025E0249DF582E4343416
:102B1F00F583E493FE740193FF7C007D461201B1AF
:102B2F007D641201C3900287EEF0A3EFF090028450
:102B3F00E025E025E0249DF582E43434F583E49329
:102B4F00FE740193FF7C007D0F1201B17D641201B1
:102B5F00C3900287E0FCA3E0FD900285E0FAA3E0BA
:102B6F00FBC39DEC6480F8EA64809840037F0122E8
:102B7F00D3EB9FEE6480F8EA64809840037F0222D3
:102B8F00900285E0FCA3E0FDC3EC648094804003D9
:102B9F007F0322C3E49FFFE49EFEC3ED9FEE64809C
:0C2BAF00F8EC64809840037F04227F054E
:012BBB0022F7
:10389000900285ECF0A3EDF0A3EAF0A3EBF0A9070A
:1038A000A3E024FD601214600F14600C2403700E5A
:1038B00090028A7414F0800690028A740FF0E92551
:1038C000E025E0249DF582E43434F583E493FC7430
:1038D0000193FD90028AE0FF7E001201B17C007D21
:1038E000641201C3900287E0FCA3E0FD900285E032
:1038F000FAA3E0C39DFDEA9CFCD3ED9FEE6480F843
:10390000EC6480985017C3E49FFFE49EFEC3ED9FD4
:0F391000EE6480F8EC64809840037F01227F0012
:01391F002285
:10454E00ED24FE601114601214600F146010240428
:10455E00700E7E03800A7E5A80067E3280027E1E98
:0C456E0074442FF582E43402F583EEF073
:01457A00221E
:0B335800900280EBF0A3EAF0A3E9F084
:10336300E4A3F0900283E0FFC3940550279002800A
:10337300E0FBA3E475F00212022EA9F0FA12024454
:10338300FDEF25E0240FF8A6F008A605900283E0E0
:1033930004F080CFE4900283F0E4FF900283E0FE28
:1033A300C374049EFEEFC39E503CEF25E02412F944
:1033B300EF25E0240FF8E6FC08E6FDD397EC199718
:1033C3004021EF25E02411F8E6FA08E6FBEF25E0BB
:1033D300240FF8A60208A603EF25E02411F8A6049B
:1033E30008A6050F80B5900283E004F0E0B403A9BA
:0733F3007813E6FE08E6FF77
:0133FA0022B0
:1032A800E490027FF090027FE0FFC3940140026146
:1032B8005774402FF582E43402F583E004F074403B
:1032C8002FF582E43402F583E0C39405400F9002A1
:1032D8007FE02440F582E43402F583E4F090027F35
:1032E800E0FF25E0243DF582E43402F583E0FCA309
:1032F800E0FDEF75F00AA42424F582E43402F58396
:10330800C083C08290027FE02440F582E43402F555
:1033180083E0D082D08375F00212043DECF0A3ED77
:10332800F0EF75F00AA42424F9740235F0FA7B0151
:1033380012335890027FE025E02430F582E434020D
:0F334800F583EEF0A3EFF090027FE004F041ADCB
:013357002253
:10180000E4900282F0A3F090027FF090027FE0F972
:10181000C39401400201CAE0FF25E02430F582E4D0
:101820003402F583E0FCA3E0FDEF25E02422F582FD
:10183000E43402F583E0FEA3E0C39DFFEE9CAB071A
:10184000FA200A4AE925E025E0249DF582E43434B3
:10185000F583E493FE74019325E0FFEE33FED3EBB2
:101860009FEE6480F8EA6480984057900283E09B82
:10187000EA6480F8900282E06480985045EAF0A320
:10188000EBF090027FE090021EF0D20A80349002CA
:101890001EE0B5012D90027FE025E025E0249DF5B6
:1018A00082E43434F583E493FE740193FF7C007D7D
:1018B0003C1201B17D641201C3C3EB9FEA9E50024A
:1018C000C20A90027FE004F0010BE490027FF090E6
:1018D000027FE0FFC394014002816590021EE0FE9A
:1018E000EF6E7002216E200A02216E90027FE025C9
:1018F000E025E024DBF582E43434F5831203F09034
:10190000030FE0F8A3E0F9A3E0FAA3E05FFFEA5ECB
:10191000FEE95DFDE85CFC4D4E4F603190030FA386
:10192000A3A3E0FB90027FE025E025E024DBF58225
:10193000E43434F5831203F01203E3EB5FFFEA5E55
:10194000FEE95DFDE85CFC90030F12040090027F4D
:10195000E0FF25E02422F582E43402F583E0FCA3D5
:10196000E0FDEF25E02420F582E4340241D7900227
:101970007FE0FF25E02420F582E43402122A9390D0
:101980000280EFF090027FE0FF25E02430F582E452
:101990003402122A93900281EFF0900280E06401F9
:1019A0006002615DA3E06401600241E590027FE0B6
:1019B00025E025E024DBF582E43434F5831203F0DE
:1019C00090030FE0F8A3E0F9A3E0FAA3E05FFFEAD9
:1019D0005EFEE95DFDE85CFC4D4E4F705E90027F5F
:1019E000E0FF2444F582E43402F583E06002815D87
:1019F00090030FA3A3A3E0FBEF25E025E024DBF594
:101A000082E43434F5831203F0EB4FFFEA4EFEE933
:101A10004DFDE84CFC90030F12040090027FE0FFA4
:101A20002441F582E43402F583741EF074442FF5EA
:101A300082E43402F5837403F0815D90027FE0FF5D
:101A40002444F582E43402F5837403F074412FF5E5
:101A500082E43402F583E06002815D90030FE0F8D8
:101A6000A3E0F9A3E0FAA3E0FB90027FE025E025E4
:101A7000E024DBF582E43434F5831203F01203E34F
:101A8000EB5FFFEA5EFEE95DFDE85CFC90030F1290
:101A9000040090027FE0FF25E02430F582E4340268
:101AA000F583E0FCA3E0FDEF25E02420F582E4349B
:101AB00002F583ECF0A3EDF090027FE0FF25E02437
:101AC00030F582E43402F583E0FCA3E0FDEF25E08D
:101AD0002422F582E43402F583ECF0A3EDF09002C9
:101AE0007FE0FF812690027FE025E025E024DBF502
:101AF00082E43434F5831203F090030FE0F8A3E09E
:101B0000F9A3E0FAA3E05FFFEA5EFEE95DFDE85CB1
:101B1000FC4D4E4F604590027FE02444F582E43452
:101B200002F583E06002815D90030FA3A3A3E0FBB5
:101B300090027FE025E025E024DBF582E43434F5F3
:101B4000831203F01203E3EB5FFFEA5EFEE95DFD43
:101B5000E85CFC90030F120400812A812A90028124
:101B6000E0B4012F90027FE0FF25E02430F582E40D
:101B70003402F583E0FCA3E0FDEF25E02420F582AC
:101B8000E43402F583ECF0A3EDF090027FE0FF7DFA
:101B900001815A90027FE0FF25E02420F582E434A1
:101BA00002F583E0FCA3E0FDEF25E02430F582E4BC
:101BB0003402F583E0FAA3E0FB900280E090028912
:101BC000F0123890EF606390027FE0FF2444F582CA
:101BD000E43402F583E06002815D90027FE0FE253F
:101BE000E02430F582E43402F583E0FCA3E0FDEE6E
:101BF00025E02420F582E43402F583ECF0A3EDF037
:101C000090027FE0FE25E02430F582E43402F58383
:101C1000E0FCA3E0FDEE25E02422F582E43402F5A9
:101C200083ECF0A3EDF07D03803090027FE0FF2590
:101C3000E02430F582E43402F583E0FCA3E0FDEF1C
:101C400025E02420F582E43402F583ECF0A3EDF0E6
:101C500090027FE0FF900281E0FD12454E90027FEE
:051C6000E004F001CFDB
:011C6500225C
:10486C000102030405060708090A0B0C0D0E0F10B4
:04487C0011121314EE
:0A494B00E49002F7F0A3F0A3F022BD
:0B370900900313EBF0A3EAF0A3E9F03B
:10371400E412019F900317F0900316F0900316E053
:10372400FFC394015070EF25E025E024DBF582E42B
:103734003434F5831203F090030FE0F8A3E0F9A307
:10374400E0FAA3E05FFFEA5EFEE95DFDE85C4D4E52
:103754004F603B900313E0FBA3E0FAA3E0F974018C
:1037640012017D120164D394025023900316E09059
:10377400486C93FFE92401F9E43AFA900317E0FE58
:1037840004F0EE7C0029F9EC3AFAEF12019F900361
:0637940016E004F080863F
:01379A00220C
:10237300E49002F8F0A3F07B017A03792112370984
:102383009002F7E0FD704A900321E07002A115B4BA
:102393000111A3E0FF9002F5E4F0A3EFF0A37401B1
:1023A300F08021900321E0B4021AA3E075F020A489
:1023B300FFA3E0FBEF4BFF9002F5E5F0F0A3EFF096
:1023C300A37402F09002F5E0FFA3E09002F8CF813E
:1023D30054ED640160028184900321E0F96401708B
:1023E3004DA3E0FD7C009002F5E0FAA3E0FBB50508
:1023F30028ECB502249002FAE07002A3E06002A187
:1024030015200D07D20DEA44408003EA4420AF03B0
:102413009002F8F0A3EFF081EBEA200D0444108062
:10242300024430AF039002F8F0A3EFF0A110E9B437
:10243300022D900322E075F020A4FFAEF0A3E0FD8F
:10244300EF4DFF9002F5EEF0A3EFF0A37402F0A3BB
:10245300EEF0A3EFF0C20DA3E4F0A374FAF0229020
:102463000321E06002A1159002F5E0200D04441061
:1024730080024430FFA3E09002F8CFF0A3EFF0A175
:10248300109002F7E064026002A115900321E0F9C5
:102493006402705EA3E075F020A4FF9002F5E0FCF7
:1024A300A3E0FDB5070AECB5F0067E007F018004CA
:1024B3007E007F00900323E0FBEF4B4E60549002BD
:1024C300FAE07002A3E0704A200D0CD20DEC4440F8
:1024D300AF059002F8800D9002F5E04420FFA3E0E1
:1024E3009002F8CFF0A3EFF09002FAE4F0A3744661
:1024F300F022E9701D9002F5E0200D0444108002E3
:102503004430FFA3E09002F8CFF0A3EFF0E4900291
:02251300F7F0DF
:0125150022A3
:1039B9000221C4E493A3F8E493A34003F68001F23F
:1039C90008DFF48029E493A3F85407240CC8C3330F
:1039D900C4540F4420C8834004F456800146F6DFDE
:1039E900E4800B01020408102040809030FEE47E40
:1039F900019360BCA3FF543F30E509541FFEE493D3
:103A0900A360010ECF54C025E060A840B8E493A399
:103A1900FAE493A3F8E493A3C8C582C8CAC583CAC4
:103A2900F0A3C8C582C8CAC583CADFE9DEE780BE7C
:0131D40000FA
:10006E00E709F608DFFA8046E709F208DFFA803E74
:10007E0088828C83E709F0A3DFFA8032E309F60861
:10008E00DFFA8078E309F208DFFA807088828C83C9
:10009E00E309F0A3DFFA806489828A83E0A3F6087D
:1000AE00DFFA805889828A83E0A3F208DFFA804C57
:1000BE0080D280FA80C680D4806980F2803380102E
:1000CE0080A680EA809A80A880DA80E280CA803397
:1000DE0089828A83ECFAE493A3C8C582C8CCC5830F
:1000EE00CCF0A3C8C582C8CCC583CCDFE9DEE780DF
:1000FE000D89828A83E493A3F608DFF9ECFAA9F05E
:10010E00EDFB2289828A83ECFAE0A3C8C582C8CCB3
:10011E00C583CCF0A3C8C582C8CCC583CCDFEADECC
:10012E00E880DB89828A83E493A3F208DFF980CC2E
:10013E0088F0EF60010E4E60C388F0ED2402B40427
:10014E000050B9F582EB2402B4040050AF232345CE
:06015E0082239000BE7335
:10016400BB010689828A83E0225002E722BBFE0299
:09017400E32289828A83E49322CC
:10017D00BB010989828A83F8E028F022500327F712
:10018D0022BBFE05F8E328F3228A838982F8E493E3
:02019D00282216
:10019F00BB010689828A83F0225002F722BBFE013F
:0201AF00F32239
:1001B100EF8DF0A4A8F0CF8CF0A428CE8DF0A42E62
:0201C100FE221C
:1001C300BC000BBE0029EF8DF084FFADF022E4CC20
:1001D300F875F008EF2FFFEE33FEEC33FCEE9DECE9
:1001E300984005FCEE9DFE0FD5F0E9E4CEFD22ED2F
:1001F300F8F5F0EE8420D21CFEADF075F008EF2F79
:10020300FFED33FD4007985006D5F0F222C398FD69
:050213000FD5F0EA2206
:10021800C5F0F8A3E028F0C5F0F8E5821582700271
:060228001583E038F0220E
:10022E00A3F8E0C5F025F0F0E58215827002158383
:06023E00E0C838F0E822E0
:10024400BB010A89828A83E0F5F0A3E02250068785
:10025400F009E71922BBFE07E3F5F009E319228947
:0B026400828A83E493F5F0740193227A
:10026F00BB0110E58229F582E5833AF583E0F5F0CD
:10027F00A3E0225009E92582F886F008E622BBFEAA
:10028F000AE92582F8E2F5F008E222E5832AF583F0
:08029F00E993F5F0A3E99322B5
:1002A700BB010A89828A83F0E5F0A3F0225006F7A2
:0F02B70009A7F01922BBFE06F3E5F009F319229F
:1002C600E88FF0A4CC8BF0A42CFCE98EF0A42CFCD7
:1002D6008AF0EDA42CFCEA8EF0A4CDA8F08BF0A455
:1002E6002DCC3825F0FDE98FF0A42CCD35F0FCEBB4
:1002F6008EF0A4FEA9F0EB8FF0A4CFC5F02ECD3979
:0F030600FEE43CFCEAA42DCE35F0FDE43CFC22E5
:1003150075F008758200EF2FFFEE33FECD33CDCC9F
:1003250033CCC58233C5829BED9AEC99E582984022
:100335000CF582EE9BFEED9AFDEC99FC0FD5F0D6FF
:10034500E4CEFBE4CDFAE4CCF9A88222B800C1B929
:100355000059BA002DEC8BF084CFCECDFCE5F0CB67
:10036500F97818EF2FFFEE33FEED33FDEC33FCEBA0
:1003750033FB10D703994004EB99FB0FD8E5E4F95B
:10038500FA227818EF2FFFEE33FEED33FDEC33FC48
:10039500C933C910D7059BE99A4007EC9BFCE99A3C
:1003A500F90FD8E0E4C9FAE4CCFB2275F010EF2F81
:1003B500FFEE33FEED33FDCC33CCC833C810D70781
:1003C5009BEC9AE899400AED9BFDEC9AFCE899F8BC
:0E03D5000FD5F0DAE4CDFBE4CCFAE4C8F9224F
:0D03E300CFF4CFCEF4CECDF4CDCCF4CC22AF
:1003F000E493FC740193FD740293FE740393FF2253
:0C040000ECF0A3EDF0A3EEF0A3EFF0226F
:10040C00A8828583F0D083D0821204231204231295
:10041C000423120423E473E493A3C583C5F0C583BA
:10042C00C8C582C8F0A3C583C5F0C583C8C582C83A
:01043C00229D
:0C043D00A42582F582E5F03583F58322CA
:10044900E3F5F009E208B5F06BDFF58067E3F5F055
:1004590009E608B5F05EDFF5805A87F009E608B5C8
:10046900F052DFF6804E87F009E208B5F046DFF674
:10047900804288828C8387F009E0A3B5F036DFF6E5
:10048900803288828C8387F009E493A3B5F025DF55
:10049900F5802188828C83E3F5F009E0A3B5F01497
:1004A900DFF5801088828C83E3F5F009E493A3B526
:1004B900F002DFF4020578808780E9809080D4809B
:1004C9003E8015806E807E809D80B7808D80A38060
:1004D900518074803C02058489828A83ECFAE49312
:1004E900F5F0A3C8C582C8CCC583CCE493A3C8C51D
:1004F90082C8CCC583CCB5F076DFE3DEE1807089B4
:10050900828A83E493F5F0A3E208B5F062DFF48010
:100519005E89828A83E0F5F0A3E608B5F051DFF53C
:10052900804D89828A83E0F5F0A3E208B5F040DFC7
:10053900F5803C89828A83E493F5F0A3E608B5F057
:100549002EDFF4802A8002805789828A83ECFAE4BC
:1005590093F5F0A3C8C582C8CCC583CCE0A3C8C5B0
:1005690082C8CCC583CCB5F006DFE4DEE280007F2B
:10057900FFB5F0020F2240027F012289828A83ECB3
:10058900FAE0F5F0A3C8C582C8CCC583CCE0A3C8FE
:10059900C582C8CCC583CCB5F0D5DFE5DEE380CF15
:1005A90089828A83ECFAE0F5F0A3C8C582C8CCC574
:1005B90083CCE493A3C8C582C8CCC583CCB5F0AFBE
:1005C900DFE4DEE280A988F0EF60010E4E60ABED5A
:1005D9002402B404005098F582EB2402B4040050BC
:0A05E9008E23234582239004C07383
:10419000900308E0FFA3E0FEA3E0CF90024BF0A362
:1041A000EEF0A3EFF090030BE0CBF0A3E0CAF0A396
:1041B000E0C9F07F2290024EAD82AC831201648D83
:1041C000828C83F0A309E970010ADFEC90030BE015
:0A41D000FBA3E0FAA3E0F90214F9E2
:10149400E508244BF582E43402F583E00508229044
:1014A400024830070390024BE475F0011206200253
:1014B40001642000E97F2ED2008018EF540F24909D
:1014C400D43440D4FF30040BEF24BFB41A005003CB
:1014D4002461FFE50960021509050CE50C7002059D
:1014E4000B30070E900248E475F001120620EF025B
:1014F400019F0246717403D2078003E4C207F50812
:10150400900248120637E4F509F50BF50CE509607D
:10151400077F201214D780F5750AFFC201C200C2EA
:1015240002C203C205C206C2081214A3FF700D3022
:1015340007057F001214E8AF0CAE0B22B4255FC27E
:10154400D5C2041214A3FF24D0B40A00501A75F0B3
:101554000A780930D50508B6FF0106C6A426F62088
:10156400D5047002D20380D924CFB41A00EF5004FA
:10157400C2E5D2040216E9D20180C6D20080C0D2EC
:101584000280BCD2D580BAD20580B47F201214D791
:101594002002077401B5090040F1121494FF1214DB
:1015A400D7021511D208D2068095121494FB121496
:1015B40094FA121494F94A4B700679BA7A177BFF9D
:1015C40020022EE509602A7E008E827583001205B2
:1015D400F360060EEE650A70F0C2D5EBC0E0EAC017
:1015E400E0E9C0E0EE121730D0E0F9D0E0FAD0E044
:1015F400FB120164FF60AAEBC0E0EAC0E0E9C0E0CE
:101604001214D7D0E02401F9D0E03400FAD0E0FB82
:10161400E50A0460DCD50AD980877BFF7A17792C28
:10162400D202809C791080027908C206C208800820
:10163400D2D5790A8004790AC2D5E50A047002F584
:101644000AE4FAFDFEFF121494FC7B082001131235
:101654001494FD7B1030000A121494FE121494FFAB
:101664007B20EC3382D592D55013C3E43000069F1F
:10167400FFE49EFEE42001039DFDE49CFCE4CBF822
:10168400C201EC700CCFCECDCCE824F8F870F38016
:1016940017C3EF33FFEE33FEED33FDEC33FCEB33D6
:1016A400FB994002FB0FD8E9EB300105F8D0E0C408
:1016B40048B201C0E00AEC4D4E4F78207B0070C266
:1016C400EAB50A0040BCC0E0121732D0F0D0E020E6
:1016D4000104C4C0E0C4B201C0F01214C0D0F0D5FB
:1016E400F0EB02151112064015AE53162858157F5B
:1016F4004C157B42162C4F1634441634491594432A
:08170400163A55161E46161E8A
:10170C0045161E4717DA5015832D15872E15AA2B53
:10171C00158B2315A82017C32A154348000015A2C2
:10172C003F3F3F00790AA2D5200314300509B910B8
:10173C00020404B9080104A2D520060250010420B9
:10174C0002689202B509005034C0E07F20300319C2
:10175C007F30A20272067205500F121789C202C2A4
:10176C0006C205C2087F30800F300503E9C0E012C5
:10177C0014D7300503D0E0F9D0E0B509CC3005170B
:10178C007F30B9100C1214D77F583004077F788043
:10179C0003B908031214D73002057F2D0214D77F2A
:1017AC00202008F87F2B2006F322920280CF286E8F
:1017BC00756C6C2900D2011214943001F8C20178B6
:1017CC000930D50108F60215432D5043495812141F
:1017DC00942403B405004001E49017D5931214C867
:0D17EC00743A1214C8D203750904021628BD
:1005F300BB010CE58229F582E5833AF583E02250BD
:1006030006E92582F8E622BBFE06E92582F8E22206
:0D061300E58229F582E5833AF583E4932220
:10062000F8E0FBA3A3E0F925F0F0E5821582700263
:070630001583E0FA38F02207
:09063700EBF0A3EAF0A3E9F022C4
:10064000D083D082F8E4937012740193700DA3A349
:1006500093F8740193F5828883E47374029368605D
:06066000EFA3A3A380DF5D
:10467100EFB40A07740D12467C740A309811A89998
:10468100B8130CC2983098FDA899C298B811F630A9
:0746910099FDC299F5992281
:00000001FF
