:10083100576174636820646F67206578616D706CBF
:0408410065210A0023
:100800007F007EC27D017C0012063ED2AF7BFF7A64
:0B0810000879311200261206F880FE65
:03005B0002056536
:10056500C0E0C083C082C0D075D000C000C001C04B
:0505750002C003C007F5
:10057A00E5B730E03CAFB6BF080575B5CA802FBFF6
:10058A0018088551B57556008024BF2821E556C341
:10059A009555400743B110D2098013AB52AA53A90B
:1005AA00548556827583001203D3F5B5055643B7B1
:0905BA0001E5B730E10343B7028B
:1005C300D007D003D002D001D000D0D0D082D083C6
:0305D300D0E03243
:10084500C2098B528A5389548D5185275543B1204E
:010855002280
:060862003009FDC209226D
:1006F800E4FF1207377526CA7527147B017D017F31
:0607080001120003D2EC17
:10070E00E4F52274572522F8A6220522E522B41418
:10071E00F27B007A007957752714E4FD1208451212
:07072E0008627F0A1207EDCB
:0207350080D76B
:08063E008F258E248D238C22F0
:100646009080197403F0908018F0E4900166F0A38E
:10065600F0900100F0A3F0C20A7F20FEFDFCAB255E
:10066600AA24A923A822120400A804A905AA06AB55
:10067600077F007E407D387C0012048BC3E49FFF19
:10068600E49EAD0775C824F5CB8DCAF5CD8DCCD2C9
:06069600CE759850D2ACB5
:01069C00223B
:10069D00900167E0FD900166E0FCC39D5006C3ED3F
:1006AD009CFE800DED2414FE900166E0FDC3EE9DD1
:1006BD00FEEED3940140D9C2AC900166E004F0E0A7
:1006CD0075F01484E5F0F0E02408F8A607200A1868
:1006DD00D2ACA3E004F0E075F01484E5F0F0E02472
:0A06ED0008F8E6F599D20A22D2AC13
:0106F70022E0
:030023000205D6FD
:1005D600C0E0C0F0C083C082C0D075D000C000C0EB
:1005E6000730981DC298900100E004F0E075F064B1
:1005F60084E5F0F0E02402F582E43401F583E59920
:10060600F0309925C299900167E0FF900166E06F8E
:100616006015A3E004F0E075F01484E5F0F0E02442
:1006260008F8E6F5998002C20AD007D000D0D0D0EB
:0806360082D083D0F0D0E03245
:1007C8008B378A388939AB37AA38A9391203BA6006
:1007D800130539E5397002053814F91203BAFF1206
:0507E800069D80E222E5
:060026008B228A238924CD
:10002C007534007535007536258B378A38893985D6
:10003C00343A85353B85363C7B017A0079001207D2
:0A004C00737B017A0079000207C8F7
:10000300EDC4333354C0FEEFC433333354804E4412
:0E0013000C4BF5B1E526C313F5B28527B422D8
:10073700908101EFF0700B90801E7483F090801F02
:10074700F022BF010B9080187484F0908019F0227A
:10075700BF020B9080367485F0908037F022BF037C
:0C0767000A9080317485F0908030F02200
:10081B00EF1FAA0670011E4A600BE4FDEDC3940F97
:05082B0050EE0D80F706
:0108300022A5
:1007ED00AC07AF041CEF60097F147E0012081B805C
:0207FD00F122E7
:030000000208569D
:0C085600787FE4F6D8FD75816A02080086
:1003BA00BB010689828A83E0225002E722BBFE0241
:0903CA00E32289828A83E4932274
:1003D300BB010CE58229F582E5833AF583E02250DF
:1003E30006E92582F8E622BBFE06E92582F8E22229
:0D03F300E58229F582E5833AF583E4932243
:10040000E88FF0A4CC8BF0A42CFCE98EF0A42CFC9B
:100410008AF0EDA42CFCEA8EF0A4CDA8F08BF0A419
:100420002DCC3825F0FDE98FF0A42CCD35F0FCEB78
:100430008EF0A4FEA9F0EB8FF0A4CFC5F02ECD393D
:0F044000FEE43CFCEAA42DCE35F0FDE43CFC22AA
:10044F0075F008758200EF2FFFEE33FECD33CDCC64
:10045F0033CCC58233C5829BED9AEC99E5829840E7
:10046F000CF582EE9BFEED9AFDEC99FC0FD5F0D6C4
:10047F00E4CEFBE4CDFAE4CCF9A88222B800C1B9EE
:10048F000059BA002DEC8BF084CFCECDFCE5F0CB2C
:10049F00F97818EF2FFFEE33FEED33FDEC33FCEB65
:1004AF0033FB10D703994004EB99FB0FD8E5E4F920
:1004BF00FA227818EF2FFFEE33FEED33FDEC33FC0D
:1004CF00C933C910D7059BE99A4007EC9BFCE99A01
:1004DF00F90FD8E0E4C9FAE4CCFB2275F010EF2F46
:1004EF00FFEE33FEED33FDCC33CCC833C810D70746
:1004FF009BEC9AE899400AED9BFDEC9AFCE899F881
:0E050F000FD5F0DAE4CDFBE4CCFAE4C8F92213
:10077300853740853841853942EBC53AFBEAC53BAD
:10078300FAE9C53CF97F0978431203BAF60809E987
:0E07930070010ADFF4AB3AAA3BA93C0200BA9F
:10005E00E54C2440F8E6054C22783D300702784006
:10006E00E475F00112052F0203BA2000EB7F2ED2A9
:10007E00008018EF540F2490D43440D4FF30040B7A
:10008E00EF24BFB41A0050032461FFE54D60021542
:10009E004D0550E5507002054F30070D783DE47563
:1000AE00F00112052FEF02051D0207A17403D207FE
:1000BE008003E4C207F54C8B3D8A3E893FE4F54D43
:1000CE00F54FF550E54D60077F2012009980F575CC
:1000DE004EFFC201C200C202C203C205C206C2085E
:1000EE00120067FF700D3007057F001200AAAF5097
:1000FE00AE4F22B4255FC2D5C204120067FF24D0D2
:10010E00B40A00501A75F00A784D30D50508B6FFBE
:10011E000106C6A426F620D5047002D20380D92487
:10012E00CFB41A00EF5004C2E5D2040202AAD201E3
:10013E0080C6D20080C0D20280BCD2D580BAD20591
:10014E0080B47F201200992002077401B54D004043
:10015E00F112005EFF1200990200D2D208D2068080
:10016E009512005EFB12005EFA12005EF94A4B70A9
:10017E0006797B7A037BFF20022EE54D602A7E00F6
:10018E008E827583001203D360060EEE654E70F0FC
:10019E00C2D5EBC0E0EAC0E0E9C0E0EE1202F1D059
:1001AE00E0F9D0E0FAD0E0FB1203BAFF60AAEBC090
:1001BE00E0EAC0E0E9C0E0120099D0E02401F9D0F5
:1001CE00E03400FAD0E0FBE54E0460DCD54ED98079
:1001DE00877BFF7A0279EDD202809C7910800279BA
:1001EE0008C206C2088008D2D5790A8004790AC2EC
:1001FE00D5E54E047002F54EE4FAFDFEFF12005EE8
:10020E00FC7B0820011312005EFD7B1030000A12E9
:10021E00005EFE12005EFF7B20EC3382D592D5503D
:10022E0013C3E43000069FFFE49EFEE42001039D0D
:10023E00FDE49CFCE4CBF8C201EC700CCFCECDCC2F
:10024E00E824F8F870F38017C3EF33FFEE33FEEDBA
:10025E0033FDEC33FCEB33FB994002FB0FD8E9EB9B
:10026E00300105F8D0E0C448B201C0E00AEC4D4EB2
:10027E004F78207B0070C2EAB54E0040BCC0E01241
:10028E0002F3D0F0D0E0200104C4C0E0C4B201C03B
:10029E00F0120082D0F0D5F0EB0200D212053F0131
:1002AE006F5301E95801404C013C4201ED4F01F5FD
:0F02BE004401F54901554301FB5501DF4601DFBE
:1002CD004501DF47039B5001442D01482E016B2B47
:1002DD00014C2301692003842A01044800000163B5
:1002ED003F3F3F00790AA2D5200314300509B9100C
:1002FD00020404B9080104A2D5200602500104200D
:10030D0002689202B54D005034C0E07F20300319D1
:10031D007F30A20272067205500F12034AC202C24A
:10032D0006C205C2087F30800F300503E9C0E01218
:10033D000099300503D0E0F9D0E0B54DCC3005176C
:10034D007F30B9100C1200997F583004077F7880E8
:10035D0003B908031200993002057F2D0200997F21
:10036D00202008F87F2B2006F322920280CF286EE2
:10037D00756C6C2900D20112005E3001F8C2017853
:10038D004D30D50108F60201042D50434958120095
:10039D005E2403B405004001E49003969312008A95
:0D03AD00743A12008AD203754D040201E972
:10051D00BB010689828A83F0225002F722BBFE01BD
:02052D00F322B7
:10052F00FAE6FB0808E6F925F0F618E6CA3AF622CD
:10053F00D083D082F8E4937012740193700DA3A34B
:10054F0093F8740193F5828883E47374029368605F
:06055F00EFA3A3A380DF5F
:1007A100EFB40A07740D1207AC740A309811A899B6
:1007B100B8130CC2983098FDA899C298B811F630B8
:0707C10099FDC299F5992290
:00000001FF
