:1007E6004C434420446973706C6179206578616D6F
:0607F600706C65210A0091
:100003007F007EC27D017C001206A7D2AF7BFF7A00
:0B0013000779E61207611205D680FE97
:0806A7008F258E248D238C2287
:1006AF009080197403F0908018F0E4900166F0A325
:1006BF00F0900100F0A3F0C2097F20FEFDFCAB25F6
:1006CF00AA24A923A82212039BA804A905AA06AB52
:1006DF00077F007E407D387C00120426C3E49FFF15
:1006EF00E49EAD0775C824F5CB8DCAF5CD8DCCD260
:0606FF00CE759850D2AC4C
:0107050022D1
:10070600900167E0FD900166E0FCC39D5006C3EDD5
:100716009CFE800DED2414FE900166E0FDC3EE9D67
:10072600FEEED3940140D9C2AC900166E004F0E03D
:1007360075F01484E5F0F0E02408F8A607200918FF
:10074600D2ACA3E004F0E075F01484E5F0F0E02408
:0A07560008F8E6F599D20922D2ACAA
:010760002276
:0300230002063F93
:10063F00C0E0C0F0C083C082C0D075D000C000C081
:10064F000730981DC298900100E004F0E075F06447
:10065F0084E5F0F0E02402F582E43401F583E599B6
:10066F00F0309925C299900167E0FF900166E06F25
:10067F006015A3E004F0E075F01484E5F0F0E024D9
:10068F0008F8E6F5998002C209D007D000D0D0D083
:08069F0082D083D0F0D0E032DC
:100800008B378A388939AB37AA38A9391203826005
:10081000130539E5397002053814F9120382FF1205
:05082000070680E22242
:060761008B228A2389248B
:100767007534007535007536258B378A3889398594
:10077700343A85353B85363C7B017A007900120790
:0A078700917B017A0079000208005E
:10087C005F063D2F666B7B0E7F6F7E7359377978E1
:04052D008F228D2369
:10053100E522D394034002A1D5E52394254002A1ED
:10054100D5E522702C7F051208988F26532601E5E8
:1005510023D394024003752302E523B40105432606
:10056100068008E523B4020343260CAD267F0580EF
:1005710060E522B401057524068012E522B4020566
:100581007524088008E522B40303752402E523904D
:10059100087C93F525AF241208988F26E525C454CD
:1005A1000FFFE52654084FF526FDAF2412001EE586
:1005B10022B4010405248012E522B4020575240346
:1005C1008008E522B40303752401E525540FFDAF2E
:0405D1002412001ED2
:0105D5002203
:10086800E4F522E4FDAF2212001E0522E522C3941E
:030878000940F044
:01087B00225A
:1005D6009080007403F0908001F0908002F090808B
:1005E60003F090802FF090801CF090801DF090809A
:1005F6002EF0908028F0908029F090802AF090804C
:100606002BF090802CF0120868752507752600756A
:1006160027707B02E4FD7F021208477D01E4FF128A
:10062600052D7D027F0112052D7D037F0212052D0A
:090636007D047F0312052D80FEF6
:10084700AC07E526F5E58527E4EBC454F0FFEDC4D6
:10085700333354C04F4525F5E2ECC43354E0F5E19A
:01086700226E
:10082500AC07E555F5E58556E4EBC454F0FFEDC49A
:100835003354E04F4554F5E2ECC43354E04410F52D
:02084500E122AE
:05001E008FF78DE322C5
:050898008FF7AFE32221
:0300000002088C67
:0C088C00787FE4F6D8FD75815602000369
:10038200BB010689828A83E0225002E722BBFE0279
:09039200E32289828A83E49322AC
:10039B00E88FF0A4CC8BF0A42CFCE98EF0A42CFC01
:1003AB008AF0EDA42CFCEA8EF0A4CDA8F08BF0A47F
:1003BB002DCC3825F0FDE98FF0A42CCD35F0FCEBDE
:1003CB008EF0A4FEA9F0EB8FF0A4CFC5F02ECD39A3
:0F03DB00FEE43CFCEAA42DCE35F0FDE43CFC2210
:1003EA0075F008758200EF2FFFEE33FECD33CDCCCA
:1003FA0033CCC58233C5829BED9AEC99E58298404D
:10040A000CF582EE9BFEED9AFDEC99FC0FD5F0D629
:10041A00E4CEFBE4CDFAE4CCF9A88222B800C1B953
:10042A000059BA002DEC8BF084CFCECDFCE5F0CB91
:10043A00F97818EF2FFFEE33FEED33FDEC33FCEBCA
:10044A0033FB10D703994004EB99FB0FD8E5E4F985
:10045A00FA227818EF2FFFEE33FEED33FDEC33FC72
:10046A00C933C910D7059BE99A4007EC9BFCE99A66
:10047A00F90FD8E0E4C9FAE4CCFB2275F010EF2FAB
:10048A00FFEE33FEED33FDCC33CCC833C810D707AB
:10049A009BEC9AE899400AED9BFDEC9AFCE899F8E6
:0E04AA000FD5F0DAE4CDFBE4CCFAE4C8F92279
:10079100853740853841853942EBC53AFBEAC53B8F
:1007A100FAE9C53CF97F097843120382F60809E9A1
:0E07B10070010ADFF4AB3AAA3BA93C020082B9
:10002600E54C2440F8E6054C22783D30070278403E
:10003600E475F0011204F70203822000EB7F2ED252
:10004600008018EF540F2490D43440D4FF30040BB2
:10005600EF24BFB41A0050032461FFE54D6002157A
:100066004D0550E5507002054F30070D783DE4759B
:10007600F0011204F7EF0204E50207BF7403D2078A
:100086008003E4C207F54C8B3D8A3E893FE4F54D7B
:10009600F54FF550E54D60077F2012006180F5753C
:1000A6004EFFC201C200C202C203C205C206C20896
:1000B60012002FFF700D3007057F00120072AF503F
:1000C600AE4F22B4255FC2D5C20412002FFF24D042
:1000D600B40A00501A75F00A784D30D50508B6FFF7
:1000E6000106C6A426F620D5047002D20380D924C0
:1000F600CFB41A00EF5004C2E5D204020272D20154
:1001060080C6D20080C0D20280BCD2D580BAD205C9
:1001160080B47F201200612002077401B54D0040B3
:10012600F1120026FF12006102009AD208D2068060
:1001360095120026FB120026FA120026F94A4B7089
:100146000679437A037BFF20022EE54D602A7E0066
:100156008E827583001204B860060EEE654E70F04E
:10016600C2D5EBC0E0EAC0E0E9C0E0EE1202B9D0C9
:10017600E0F9D0E0FAD0E0FB120382FF60AAEBC000
:10018600E0EAC0E0E9C0E0120061D0E02401F9D065
:10019600E03400FAD0E0FBE54E0460DCD54ED980B1
:1001A600877BFF7A0279B5D202809C79108002792A
:1001B60008C206C2088008D2D5790A8004790AC224
:1001C600D5E54E047002F54EE4FAFDFEFF12002658
:1001D600FC7B08200113120026FD7B1030000A125A
:1001E6000026FE120026FF7B20EC3382D592D550E6
:1001F60013C3E43000069FFFE49EFEE42001039D46
:10020600FDE49CFCE4CBF8C201EC700CCFCECDCC67
:10021600E824F8F870F38017C3EF33FFEE33FEEDF2
:1002260033FDEC33FCEB33FB994002FB0FD8E9EBD3
:10023600300105F8D0E0C448B201C0E00AEC4D4EEA
:100246004F78207B0070C2EAB54E0040BCC0E01279
:1002560002BBD0F0D0E0200104C4C0E0C4B201C0AB
:10026600F012004AD0F0D5F0EB02009A1205070111
:10027600375301B15801084C01044201B54F01BD85
:0F0286004401BD49011D4301C35501A74601A70E
:100295004501A747036350010C2D01102E01332B97
:1002A500011423013120034C2A00CC480000012B06
:1002B5003F3F3F00790AA2D5200314300509B91044
:1002C500020404B9080104A2D52006025001042045
:1002D50002689202B54D005034C0E07F203003190A
:1002E5007F30A20272067205500F120312C202C2BB
:1002F50006C205C2087F30800F300503E9C0E01251
:100305000061300503D0E0F9D0E0B54DCC300517DC
:100315007F30B9100C1200617F583004077F788058
:1003250003B908031200613002057F2D0200617FC9
:10033500202008F87F2B2006F322920280CF286E1A
:10034500756C6C2900D2011200263001F8C20178C3
:100355004D30D50108F60200CC2D50434958120006
:10036500262403B405004001E490035E9312005275
:0D037500743A120052D203754D040201B11A
:1004B800BB010CE58229F582E5833AF583E02250F9
:1004C80006E92582F8E622BBFE06E92582F8E22243
:0D04D800E58229F582E5833AF583E493225D
:1004E500BB010689828A83F0225002F722BBFE01F6
:0204F500F322F0
:1004F700FAE6FB0808E6F925F0F618E6CA3AF62206
:10050700D083D082F8E4937012740193700DA3A383
:1005170093F8740193F5828883E473740293686097
:06052700EFA3A3A380DF97
:1007BF00EFB40A07740D1207CA740A309811A8997A
:1007CF00B8130CC2983098FDA899C298B811F6309A
:0707DF0099FDC299F5992272
:00000001FF
