:100958004144204B6579206578616D706C65210A8A
:01096800008E
:100913007F007EC27D017C001206BCD2AF7BFF7AD2
:0B0923000979581208001208AA80FE93
:0806BC008F258E248D238C2272
:1006C4009080197403F0908018F0E4900166F0A310
:1006D400F0900100F0A3F0C20B7F20FEFDFCAB25DF
:1006E400AA24A923A82212039BA804A905AA06AB3D
:1006F400077F007E407D387C00120426C3E49FFF00
:10070400E49EAD0775C824F5CB8DCAF5CD8DCCD24A
:06071400CE759850D2AC36
:01071A0022BC
:10077800900167E0FD900166E0FCC39D5006C3ED63
:100788009CFE800DED2414FE900166E0FDC3EE9DF5
:10079800FEEED3940140D9C2AC900166E004F0E0CB
:1007A80075F01484E5F0F0E02408F8A607200B188B
:1007B800D2ACA3E004F0E075F01484E5F0F0E02496
:0A07C80008F8E6F599D20B22D2AC36
:0107D2002204
:030023000206547E
:10065400C0E0C0F0C083C082C0D075D000C000C06C
:100664000730981DC298900100E004F0E075F06432
:1006740084E5F0F0E02402F582E43401F583E599A1
:10068400F0309925C299900167E0FF900166E06F10
:100694006015A3E004F0E075F01484E5F0F0E024C4
:1006A40008F8E6F5998002C20BD007D000D0D0D06C
:0806B40082D083D0F0D0E032C7
:100885008B378A388939AB37AA38A9391203826080
:10089500130539E5397002053814F9120382FF1280
:0508A500077880E2224B
:060800008B228A238924EB
:100806007534007535007536258B378A38893985F4
:10081600343A85353B85363C7B017A0079001208EF
:0A082600307B017A0079000208859A
:1008F10041444B65795F4D7367203D203078257801
:100901000A000001000000020200000304000000D0
:020911000FFFD6
:07000300025100000153004F
:10000E00E58954FC4401F589E4F58A758CF4D28CAB
:03001E00D2A92242
:03000B0002092EB9
:10092E00C0E0758A00758CF4E55760021557E554E2
:07093E0060021554D0E03205
:04071B008E248F2574
:10071F00E4FDED25E025E02409F582E43409F583B5
:10072F00E493C313FA74019313FBED25E025E02442
:10073F0005F582E43409F583E493C313FE74019342
:10074F00132BFFEE3AFEC3E5259FE5249E5013EDD4
:10075F0025E025E02403F582E43409F58374019341
:08076F00FF220DBD03AC7F0069
:01077700225F
:10052D00E4F522F523E5546002A1C37554027F0161
:10053D001209691207FA1208CE12071B200A35EFAD
:10054D006074E5537008F5518F5205538068EFFDC7
:10055D007C00B5521AECB551160553E553C3940101
:10056D0040548C228D23D20AC2097557648000E451
:10057D00F5538042EFB55223E4B5511FF553E557BE
:10058D007034200908D209E55144048004E5514432
:10059D0002F52285522375571E801B0553E553C363
:1005AD0094024012E551200904440180024403F5F0
:0A05BD0022855223C20AAE22AF23AA
:0105C7002211
:100945009080087405F0E4F525FBFD7F011207D3BF
:03095500C20A22B1
:1008AA0012000E12094512052D8E558F56E5564532
:1008BA005560F37BFF7A0879F1855525855626120E
:0408CA00080080E2C0
:1007D300EDC4333354C0441C4FF5B975BAF0BB01B3
:1007E3000DE525C4333354C04423F5BB800375BBE7
:0707F30023BD0102D2E82240
:08096900E5BA54F04FF5BA2283
:0407FA0043B980225D
:1008CE00E5B930E5FB43B920AFBDEFFEADBC7C0012
:1008DE00E42DFFEC3EC4F854F0C868FEEFC4540F8C
:0208EE0048FFC1
:0108F00022E5
:030000000205C82E
:0C05C800787FE4F6D8FD75815702060F1D
:1005D400020913E493A3F8E493A34003F68001F221
:1005E40008DFF48029E493A3F85407240CC8C33328
:1005F400C4540F4420C8834004F456800146F6DFF7
:10060400E4800B0102040810204080900003E47E83
:10061400019360BCA3FF543F30E509541FFEE493EB
:10062400A360010ECF54C025E060A840B8E493A3B2
:10063400FAE493A3F8E493A3C8C582C8CAC583CADD
:10064400F0A3C8C582C8CAC583CADFE9DEE780BE95
:01000A0000F5
:10038200BB010689828A83E0225002E722BBFE0279
:09039200E32289828A83E49322AC
:10039B00E88FF0A4CC8BF0A42CFCE98EF0A42CFC01
:1003AB008AF0EDA42CFCEA8EF0A4CDA8F08BF0A47F
:1003BB002DCC3825F0FDE98FF0A42CCD35F0FCEBDE
:1003CB008EF0A4FEA9F0EB8FF0A4CFC5F02ECD39A3
:0F03DB00FEE43CFCEAA42DCE35F0FDE43CFC2210
:1003EA0075F008758200EF2FFFEE33FECD33CDCCCA
:1003FA0033CCC58233C5829BED9AEC99E58298404D
:10040A000CF582EE9BFEED9AFDEC99FC0FD5F0D629
:10041A00E4CEFBE4CDFAE4CCF9A88222B800C1B953
:10042A000059BA002DEC8BF084CFCECDFCE5F0CB91
:10043A00F97818EF2FFFEE33FEED33FDEC33FCEBCA
:10044A0033FB10D703994004EB99FB0FD8E5E4F985
:10045A00FA227818EF2FFFEE33FEED33FDEC33FC72
:10046A00C933C910D7059BE99A4007EC9BFCE99A66
:10047A00F90FD8E0E4C9FAE4CCFB2275F010EF2FAB
:10048A00FFEE33FEED33FDCC33CCC833C810D707AB
:10049A009BEC9AE899400AED9BFDEC9AFCE899F8E6
:0E04AA000FD5F0DAE4CDFBE4CCFAE4C8F92279
:10083000853740853841853942EBC53AFBEAC53BEF
:10084000FAE9C53CF97F097843120382F60809E901
:0E08500070010ADFF4AB3AAA3BA93C02008219
:10002600E54C2440F8E6054C22783D30070278403E
:10003600E475F0011204F70203822000EB7F2ED252
:10004600008018EF540F2490D43440D4FF30040BB2
:10005600EF24BFB41A0050032461FFE54D6002157A
:100066004D0550E5507002054F30070D783DE4759B
:10007600F0011204F7EF0204E502085E7403D207EA
:100086008003E4C207F54C8B3D8A3E893FE4F54D7B
:10009600F54FF550E54D60077F2012006180F5753C
:1000A6004EFFC201C200C202C203C205C206C20896
:1000B60012002FFF700D3007057F00120072AF503F
:1000C600AE4F22B4255FC2D5C20412002FFF24D042
:1000D600B40A00501A75F00A784D30D50508B6FFF7
:1000E6000106C6A426F620D5047002D20380D924C0
:1000F600CFB41A00EF5004C2E5D204020272D20154
:1001060080C6D20080C0D20280BCD2D580BAD205C9
:1001160080B47F201200612002077401B54D0040B3
:10012600F1120026FF12006102009AD208D2068060
:1001360095120026FB120026FA120026F94A4B7089
:100146000679437A037BFF20022EE54D602A7E0066
:100156008E827583001204B860060EEE654E70F04E
:10016600C2D5EBC0E0EAC0E0E9C0E0EE1202B9D0C9
:10017600E0F9D0E0FAD0E0FB120382FF60AAEBC000
:10018600E0EAC0E0E9C0E0120061D0E02401F9D065
:10019600E03400FAD0E0FBE54E0460DCD54ED980B1
:1001A600877BFF7A0279B5D202809C79108002792A
:1001B60008C206C2088008D2D5790A8004790AC224
:1001C600D5E54E047002F54EE4FAFDFEFF12002658
:1001D600FC7B08200113120026FD7B1030000A125A
:1001E6000026FE120026FF7B20EC3382D592D550E6
:1001F60013C3E43000069FFFE49EFEE42001039D46
:10020600FDE49CFCE4CBF8C201EC700CCFCECDCC67
:10021600E824F8F870F38017C3EF33FFEE33FEEDF2
:1002260033FDEC33FCEB33FB994002FB0FD8E9EBD3
:10023600300105F8D0E0C448B201C0E00AEC4D4EEA
:100246004F78207B0070C2EAB54E0040BCC0E01279
:1002560002BBD0F0D0E0200104C4C0E0C4B201C0AB
:10026600F012004AD0F0D5F0EB02009A1205070111
:10027600375301B15801084C01044201B54F01BD85
:0F0286004401BD49011D4301C35501A74601A70E
:100295004501A747036350010C2D01102E01332B97
:1002A500011423013120034C2A00CC480000012B06
:1002B5003F3F3F00790AA2D5200314300509B91044
:1002C500020404B9080104A2D52006025001042045
:1002D50002689202B54D005034C0E07F203003190A
:1002E5007F30A20272067205500F120312C202C2BB
:1002F50006C205C2087F30800F300503E9C0E01251
:100305000061300503D0E0F9D0E0B54DCC300517DC
:100315007F30B9100C1200617F583004077F788058
:1003250003B908031200613002057F2D0200617FC9
:10033500202008F87F2B2006F322920280CF286E1A
:10034500756C6C2900D2011200263001F8C20178C3
:100355004D30D50108F60200CC2D50434958120006
:10036500262403B405004001E490035E9312005275
:0D037500743A120052D203754D040201B11A
:1004B800BB010CE58229F582E5833AF583E02250F9
:1004C80006E92582F8E622BBFE06E92582F8E22243
:0D04D800E58229F582E5833AF583E493225D
:1004E500BB010689828A83F0225002F722BBFE01F6
:0204F500F322F0
:1004F700FAE6FB0808E6F925F0F618E6CA3AF62206
:10050700D083D082F8E4937012740193700DA3A383
:1005170093F8740193F5828883E473740293686097
:06052700EFA3A3A380DF97
:10085E00EFB40A07740D120869740A309811A8993A
:10086E00B8130CC2983098FDA899C298B811F630FA
:07087E0099FDC299F59922D2
:00000001FF
