:100C9900506F776572206F6666206D656D6F72792A
:0B0CA900206578616D706C65210A0009
:100003007F007EC27D017C001207A1D2AF7BFF7A05
:0B0013000C7999120AD71206F880FE43
:0807A1008F258E248D238C228C
:1007A9009080197403F0908018F0E4900166F0A32A
:1007B900F0900100F0A3F0C2097F20FEFDFCAB25FB
:1007C900AA24A923A8221203ADA804A905AA06AB45
:1007D900077F007E407D387C00120438C3E49FFF08
:1007E900E49EAD0775C824F5CB8DCAF5CD8DCCD265
:0607F900CE759850D2AC51
:0107FF0022D7
:10086800900167E0FD900166E0FCC39D5006C3ED72
:100878009CFE800DED2414FE900166E0FDC3EE9D04
:10088800FEEED3940140D9C2AC900166E004F0E0DA
:1008980075F01484E5F0F0E02408F8A6072009189C
:1008A800D2ACA3E004F0E075F01484E5F0F0E024A5
:0A08B80008F8E6F599D20922D2AC47
:0108C2002213
:03002300020800D0
:10080000C0E0C0F0C083C082C0D075D000C000C0BE
:100810000730981DC298900100E004F0E075F06484
:1008200084E5F0F0E02402F582E43401F583E599F3
:10083000F0309925C299900167E0FF900166E06F62
:100840006015A3E004F0E075F01484E5F0F0E02416
:1008500008F8E6F5998002C209D007D000D0D0D0C0
:0808600082D083D0F0D0E03219
:100C74008B378A388939AB37AA38A939120382608D
:100C8400130539E5397002053814F9120382FF128D
:050C9400086880E22267
:060AD7008B228A23892412
:100ADD007534007535007536258B378A388939851B
:100AED00343A85353B85363C7B017A007900120C12
:0A0AFD001F7B017A007900020C74DF
:10052D004E6565644D656D6F7279446174615B30C4
:10053D005D203D20307825780A004E6565644D6557
:10054D006D6F7279446174615B315D203D2030784F
:10055D0025780A004E6565644D656D6F727944614D
:10056D0074615B325D203D20307825780A004E6540
:10057D0065644D656D6F7279446174615B335D20A7
:10058D003D20307825780A004E6565644D656D6FA8
:10059D007279446174615B345D203D20307825783B
:1005AD000A004E6565644D656D6F727944617461C5
:1005BD005B355D203D20307825780A004E656564F9
:1005CD004D656D6F7279446174615B365D203D20C0
:1005DD00307825780A004E6565644D656D6F7279CA
:1005ED00446174615B375D203D20307825780A00C9
:1005FD004E6565644D656D6F7279446174615B38EC
:10060D005D203D20307825780A004E6565644D6586
:10061D006D6F7279446174615B395D203D20307876
:04062D0025780A0022
:100A6B007524AA75255585512685522785532885CA
:100A7B00542985552A85562B85572C85582D8559F4
:100A8B002E855A2FE4FF120B077B007A0079247511
:0B0A9B00350075360CE4FFFE02097503
:100AA6007B007A00792475350075360CE4FFFE125A
:100AB60008C3852651852752852853852954852ABA
:100AC60055852B56852C57852D58852E59852F5A99
:010AD60022FD
:100A230090FC04741FF07B007A0079227535007501
:100A33003602E4FFFE1208C3E522B4AA06E52364E6
:100A43005560217551017552027553037554047530
:100A53005505755606755707755808755909755A1A
:070A63000A020A6B120AA649
:010A6A002269
:1006F800120A23E4FF74512FF8060FBF0AF7120AF3
:100708006B7BFF7A05792D752500855126120AD74E
:100718007BFF7A057947752500855226120AD77B13
:10072800FF7A057961752500855326120AD77BFF64
:100738007A05797B752500855426120AD77BFF7ABE
:10074800057995752500855526120AD77BFF7A0508
:1007580079AF752500855626120AD77BFF7A057969
:10076800C9752500855726120AD77BFF7A0579E3D4
:10077800752500855826120AD77BFF7A0579FD75FD
:100788002500855926120AD77BFF7A067917752521
:0907980000855A26120AD780FEE2
:100B0700E490FC01F0EF75F080A4FDACF090FC03DD
:100B1700742AF0AF0490FC06EFF0AF0590FC05EFE8
:0F0B2700F090FC017403F0E4F090FC0374AAF06A
:010B3600229C
:100B6700AA06E490FC01F090FC03742AF090FC06BE
:100B7700EAF090FC05EFF090FC017402F090FC02A3
:0E0B8700EDF0E490FC01F090FC0374AAF02263
:080975008B328A338934AC0691
:10097D00E490FC01F090FC03742AF090FC06ECF07E
:10098D0090FC05EFF090FC017402F0E4FFFEC3EF64
:10099D009536EE9535501CAB320534E534AA3370DF
:1009AD0002053314F912038290FC02F00FBF00010F
:0E09BD000E80DBE490FC01F090FC0374AAF0C5
:0109CB002209
:020B9500AC06AC
:100B9700E490FC01F090FC03742AF090FC06ECF062
:100BA70090FC05EFF090FC017401F090FC02E0FF6F
:0B0BB700E490FC01F090FC0374AAF035
:010BC2002210
:0808C3008B328A338934AC0644
:1008CB00E490FC01F090FC03742AF090FC06ECF031
:1008DB0090FC05EFF090FC017401F0E4FFFEC3EF18
:1008EB009536EE9535501E90FC02E0FDAB3205348B
:1008FB00E534AA337002053314F9ED12039B0FBFD5
:10090B0000010E80D9E490FC01F090FC0374AAF076
:01091B0022B9
:100B3700E490FC01F0EF75F080A4FDACF090FC03AD
:100B47007429F0AF0490FC06EFF0AF0590FC05EFB9
:0F0B5700F090FC017407F0E4F090FC0374AAF036
:010B6600226C
:100BC300AA06E490FC01F090FC037429F090FC0663
:100BD300EAF090FC05EFF090FC017406F090FC0243
:0E0BE300EDF0E490FC01F090FC0374AAF02207
:0809CC008B5D8A5E895FAC06B9
:1009D400E490FC01F090FC037429F090FC06ECF028
:1009E40090FC05EFF090FC017406F0E4FFFEC3EF09
:1009F4009561EE9560501CAB5D055FE55FAA5E7086
:100A040002055E14F912038290FC02F00FBF00018C
:0E0A14000E80DBE490FC01F090FC0374AAF06D
:010A220022B1
:020BF100AC0650
:100BF300E490FC01F090FC037429F090FC06ECF007
:100C030090FC05EFF090FC017405F090FC02E0FF0E
:0B0C1300E490FC01F090FC0374AAF0D8
:010C1E0022B3
:08091C008B648A658966AC0654
:10092400E490FC01F090FC037429F090FC06ECF0D8
:1009340090FC05EFF090FC017405F0E4FFFEC3EFBA
:100944009568EE9567501E90FC02E0FDAB64056669
:10095400E566AA657002056514F9ED12039B0FBFE5
:1009640000010E80D9E490FC01F090FC0374AAF01D
:010974002260
:1006310090FC03742BF090FC017480F090FC067424
:1006410001F0E490FC05F090FC017481F090FC0253
:10065100E0FFE48F1FF51EF51DF51CAE1EAD1DACB0
:100661001CFB7A01F9F81203AD8F1F8E1E8D1D8CB4
:100671001C90FC02E0FFE51F4FF51FE51EF51EE58E
:100681001DF51DE51CF51CAF1FAE1EAD1DFCE4FBE9
:100691007A01F9F81203AD8F1F8E1E8D1D8C1C90EF
:1006A100FC02E0FFE51F4FF51FE51EF51EE51DF5F8
:1006B1001DE51CF51CAF1FAE1EAD1DFCE4FB7A0150
:1006C100F9F81203AD8F1F8E1E8D1D8C1C90FC023C
:1006D100E0FFE51F4FF51FE51EF51EE51DF51DE5C4
:1006E1001CF51CE490FC01F090FC0374AAF0AF1F10
:0606F100AE1EAD1DAC1CA5
:0106F70022E0
:03000000020CB43B
:0C0CB400787FE4F6D8FD7581680200032B
:10038200BB010689828A83E0225002E722BBFE0279
:09039200E32289828A83E49322AC
:10039B00BB010689828A83F0225002F722BBFE0141
:0203AB00F3223B
:1003AD00E88FF0A4CC8BF0A42CFCE98EF0A42CFCEF
:1003BD008AF0EDA42CFCEA8EF0A4CDA8F08BF0A46D
:1003CD002DCC3825F0FDE98FF0A42CCD35F0FCEBCC
:1003DD008EF0A4FEA9F0EB8FF0A4CFC5F02ECD3991
:0F03ED00FEE43CFCEAA42DCE35F0FDE43CFC22FE
:1003FC0075F008758200EF2FFFEE33FECD33CDCCB8
:10040C0033CCC58233C5829BED9AEC99E58298403A
:10041C000CF582EE9BFEED9AFDEC99FC0FD5F0D617
:10042C00E4CEFBE4CDFAE4CCF9A88222B800C1B941
:10043C000059BA002DEC8BF084CFCECDFCE5F0CB7F
:10044C00F97818EF2FFFEE33FEED33FDEC33FCEBB8
:10045C0033FB10D703994004EB99FB0FD8E5E4F973
:10046C00FA227818EF2FFFEE33FEED33FDEC33FC60
:10047C00C933C910D7059BE99A4007EC9BFCE99A54
:10048C00F90FD8E0E4C9FAE4CCFB2275F010EF2F99
:10049C00FFEE33FEED33FDCC33CCC833C810D70799
:1004AC009BEC9AE899400AED9BFDEC9AFCE899F8D4
:0E04BC000FD5F0DAE4CDFBE4CCFAE4C8F92267
:100C1F00853740853841853942EBC53AFBEAC53BFC
:100C2F00FAE9C53CF97F097843120382F60809E90E
:0E0C3F0070010ADFF4AB3AAA3BA93C02008226
:10002600E54C2440F8E6054C22783D30070278403E
:10003600E475F0011204F70203822000EB7F2ED252
:10004600008018EF540F2490D43440D4FF30040BB2
:10005600EF24BFB41A0050032461FFE54D6002157A
:100066004D0550E5507002054F30070D783DE4759B
:10007600F0011204F7EF02039B020C4D7403D20742
:100086008003E4C207F54C8B3D8A3E893FE4F54D7B
:10009600F54FF550E54D60077F2012006180F5753C
:1000A6004EFFC201C200C202C203C205C206C20896
:1000B60012002FFF700D3007057F00120072AF503F
:1000C600AE4F22B4255FC2D5C20412002FFF24D042
:1000D600B40A00501A75F00A784D30D50508B6FFF7
:1000E6000106C6A426F620D5047002D20380D924C0
:1000F600CFB41A00EF5004C2E5D204020272D20154
:1001060080C6D20080C0D20280BCD2D580BAD205C9
:1001160080B47F201200612002077401B54D0040B3
:10012600F1120026FF12006102009AD208D2068060
:1001360095120026FB120026FA120026F94A4B7089
:100146000679437A037BFF20022EE54D602A7E0066
:100156008E827583001204CA60060EEE654E70F03C
:10016600C2D5EBC0E0EAC0E0E9C0E0EE1202B9D0C9
:10017600E0F9D0E0FAD0E0FB120382FF60AAEBC000
:10018600E0EAC0E0E9C0E0120061D0E02401F9D065
:10019600E03400FAD0E0FBE54E0460DCD54ED980B1
:1001A600877BFF7A0279B5D202809C79108002792A
:1001B60008C206C2088008D2D5790A8004790AC224
:1001C600D5E54E047002F54EE4FAFDFEFF12002658
:1001D600FC7B08200113120026FD7B1030000A125A
:1001E6000026FE120026FF7B20EC3382D592D550E6
:1001F60013C3E43000069FFFE49EFEE42001039D46
:10020600FDE49CFCE4CBF8C201EC700CCFCECDCC67
:10021600E824F8F870F38017C3EF33FFEE33FEEDF2
:1002260033FDEC33FCEB33FB994002FB0FD8E9EBD3
:10023600300105F8D0E0C448B201C0E00AEC4D4EEA
:100246004F78207B0070C2EAB54E0040BCC0E01279
:1002560002BBD0F0D0E0200104C4C0E0C4B201C0AB
:10026600F012004AD0F0D5F0EB02009A1205070111
:10027600375301B15801084C01044201B54F01BD85
:0F0286004401BD49011D4301C35501A74601A70E
:100295004501A747036350010C2D01102E01332B97
:1002A500011423013120034C2A00CC480000012B06
:1002B5003F3F3F00790AA2D5200314300509B91044
:1002C500020404B9080104A2D52006025001042045
:1002D50002689202B54D005034C0E07F203003190A
:1002E5007F30A20272067205500F120312C202C2BB
:1002F50006C205C2087F30800F300503E9C0E01251
:100305000061300503D0E0F9D0E0B54DCC300517DC
:100315007F30B9100C1200617F583004077F788058
:1003250003B908031200613002057F2D0200617FC9
:10033500202008F87F2B2006F322920280CF286E1A
:10034500756C6C2900D2011200263001F8C20178C3
:100355004D30D50108F60200CC2D50434958120006
:10036500262403B405004001E490035E9312005275
:0D037500743A120052D203754D040201B11A
:1004CA00BB010CE58229F582E5833AF583E02250E7
:1004DA0006E92582F8E622BBFE06E92582F8E22231
:0D04EA00E58229F582E5833AF583E493224B
:1004F700FAE6FB0808E6F925F0F618E6CA3AF62206
:10050700D083D082F8E4937012740193700DA3A383
:1005170093F8740193F5828883E473740293686097
:06052700EFA3A3A380DF97
:100C4D00EFB40A07740D120C58740A309811A89954
:100C5D00B8130CC2983098FDA899C298B811F63007
:070C6D0099FDC299F59922DF
:00000001FF
