:10087300436C6F636B206578616D706C65210A0052
:100800007F007EC27D017C0012065FD2AF7BFF7A43
:0B08100008797312071912057580FEAD
:08065F008F258E248D238C22CF
:100667009080197403F0908018F0E4900166F0A36D
:10067700F0900100F0A3F0C20B7F20FEFDFCAB253C
:10068700AA24A923A8221203E3A804A905AA06AB52
:10069700077F007E407D387C0012046EC3E49FFF15
:1006A700E49EAD0775C824F5CB8DCAF5CD8DCCD2A8
:0606B700CE759850D2AC94
:0106BD00221A
:1006BE00900167E0FD900166E0FCC39D5006C3ED1E
:1006CE009CFE800DED2414FE900166E0FDC3EE9DB0
:1006DE00FEEED3940140D9C2AC900166E004F0E086
:1006EE0075F01484E5F0F0E02408F8A607200B1846
:1006FE00D2ACA3E004F0E075F01484E5F0F0E02451
:0A070E0008F8E6F599D20B22D2ACF0
:0107180022BE
:030023000205F7DC
:1005F700C0E0C0F0C083C082C0D075D000C000C0CA
:100607000730981DC298900100E004F0E075F0648F
:1006170084E5F0F0E02402F582E43401F583E599FE
:10062700F0309925C299900167E0FF900166E06F6D
:100637006015A3E004F0E075F01484E5F0F0E02421
:1006470008F8E6F5998002C20BD007D000D0D0D0C9
:0806570082D083D0F0D0E03224
:10079E008B378A388939AB37AA38A9391203CA6020
:1007AE00130539E5397002053814F91203CAFF1220
:0507BE0006BE80E222EE
:060719008B228A238924D3
:10071F007534007535007536258B378A38893985DC
:10072F00343A85353B85363C7B017A0079001207D8
:0A073F00497B017A00790002079E51
:10083600EF1FAA0670011E4A600BE4FDEDC3940F7C
:0508460050EE0D80F7EB
:01084B00228A
:10086100AC07AF041CEF60097F147E0012083680CC
:02087100F12272
:10002600486F7572203D2025642C4D696E75746588
:10003600203D2025642C5365636F6E64203D20258A
:10004600640A00416C61726D206576656E74206885
:08005600617070656E210A0063
:03006B000207C3C6
:1007C300C0E0E5EE30E20375EE04E5EE30E10575D9
:1007D300EE02D209E5EE30E00575EE01D20AD0E073
:0107E30032E3
:1005750090803A7403F0908039F0908080E04408D0
:10058500F0908080E030E2F97B01E4FD7F0112000C
:10059500037F067E001208367F0C12084CE4FF121A
:1005A5000893E4FF120883E4FB7D017F0C1208A386
:1005B5007B017D017F011207E4D2EEC209C20A3038
:1005C5000920C2097BFF7A007926AFF47525008FD3
:1005D50026AFF37527008F28AFF27529008F2A12F1
:1005E5000719300ADAC20A7BFF7A0079491207191E
:0205F50080CDB7
:10000300EFC43333335480FFE5F1541F4FFFEDC486
:0F001300333354C04FFFEBC43354E04FF5F122A9
:1008830043F1028FF27F017E0012083653F1FD22FD
:1008930043F1028FF37F017E0012083653F1FD22EC
:10084C0043F102E5F454E04FF5F47F017E00120809
:05085C003653F1FD22FE
:10081B0043F102EFC43354E0FFE5F4541F4FF5F4FA
:0B082B007F017E0012083653F1FD2211
:1007E400EF25E025E0FFE5F154E34FFFED3333332C
:0C07F40054F84FFFEBC454F04FF5F12215
:0708A3008FEC8DEB8BEA22C4
:0308AA008FED22AD
:0300000002005E9D
:0C005E00787FE4F6D8FD758150020800A0
:1003CA00BB010689828A83E0225002E722BBFE0231
:0903DA00E32289828A83E4932264
:1003E300E88FF0A4CC8BF0A42CFCE98EF0A42CFCB9
:1003F3008AF0EDA42CFCEA8EF0A4CDA8F08BF0A437
:100403002DCC3825F0FDE98FF0A42CCD35F0FCEB95
:100413008EF0A4FEA9F0EB8FF0A4CFC5F02ECD395A
:0F042300FEE43CFCEAA42DCE35F0FDE43CFC22C7
:1004320075F008758200EF2FFFEE33FECD33CDCC81
:1004420033CCC58233C5829BED9AEC99E582984004
:100452000CF582EE9BFEED9AFDEC99FC0FD5F0D6E1
:10046200E4CEFBE4CDFAE4CCF9A88222B800C1B90B
:100472000059BA002DEC8BF084CFCECDFCE5F0CB49
:10048200F97818EF2FFFEE33FEED33FDEC33FCEB82
:1004920033FB10D703994004EB99FB0FD8E5E4F93D
:1004A200FA227818EF2FFFEE33FEED33FDEC33FC2A
:1004B200C933C910D7059BE99A4007EC9BFCE99A1E
:1004C200F90FD8E0E4C9FAE4CCFB2275F010EF2F63
:1004D200FFEE33FEED33FDCC33CCC833C810D70763
:1004E2009BEC9AE899400AED9BFDEC9AFCE899F89E
:0E04F2000FD5F0DAE4CDFBE4CCFAE4C8F92231
:10074900853740853841853942EBC53AFBEAC53BD7
:10075900FAE9C53CF97F0978431203CAF60809E9A1
:0E07690070010ADFF4AB3AAA3BA93C0200CAB9
:10006E00E54C2440F8E6054C22783D3007027840F6
:10007E00E475F00112053F0203CA2000EB7F2ED279
:10008E00008018EF540F2490D43440D4FF30040B6A
:10009E00EF24BFB41A0050032461FFE54D60021532
:1000AE004D0550E5507002054F30070D783DE47553
:1000BE00F00112053FEF02052D0207777403D207F8
:1000CE008003E4C207F54C8B3D8A3E893FE4F54D33
:1000DE00F54FF550E54D60077F201200A980F575AC
:1000EE004EFFC201C200C202C203C205C206C2084E
:1000FE00120077FF700D3007057F001200BAAF5067
:10010E00AE4F22B4255FC2D5C204120077FF24D0B1
:10011E00B40A00501A75F00A784D30D50508B6FFAE
:10012E000106C6A426F620D5047002D20380D92477
:10013E00CFB41A00EF5004C2E5D2040202BAD201C3
:10014E0080C6D20080C0D20280BCD2D580BAD20581
:10015E0080B47F201200A92002077401B54D004023
:10016E00F112006EFF1200A90200E2D208D2068040
:10017E009512006EFB12006EFA12006EF94A4B7069
:10018E0006798B7A037BFF20022EE54D602A7E00D6
:10019E008E8275830012050060060EEE654E70F0BD
:1001AE00C2D5EBC0E0EAC0E0E9C0E0EE120301D038
:1001BE00E0F9D0E0FAD0E0FB1203CAFF60AAEBC070
:1001CE00E0EAC0E0E9C0E01200A9D0E02401F9D0D5
:1001DE00E03400FAD0E0FBE54E0460DCD54ED98069
:1001EE00877BFF7A0279FDD202809C79108002799A
:1001FE0008C206C2088008D2D5790A8004790AC2DC
:10020E00D5E54E047002F54EE4FAFDFEFF12006EC7
:10021E00FC7B0820011312006EFD7B1030000A12C9
:10022E00006EFE12006EFF7B20EC3382D592D5500D
:10023E0013C3E43000069FFFE49EFEE42001039DFD
:10024E00FDE49CFCE4CBF8C201EC700CCFCECDCC1F
:10025E00E824F8F870F38017C3EF33FFEE33FEEDAA
:10026E0033FDEC33FCEB33FB994002FB0FD8E9EB8B
:10027E00300105F8D0E0C448B201C0E00AEC4D4EA2
:10028E004F78207B0070C2EAB54E0040BCC0E01231
:10029E000303D0F0D0E0200104C4C0E0C4B201C01A
:1002AE00F0120092D0F0D5F0EB0200E212054F01F1
:1002BE007F5301F95801504C014C4201FD4F02058C
:0F02CE0044020549016543020B5501EF4601EF5C
:1002DD004501EF4703AB5001542D01582E017B2BE7
:1002ED00015C2301792003942A0114480000017355
:1002FD003F3F3F00790AA2D5200314300509B910FC
:10030D00020404B9080104A2D520060250010420FC
:10031D0002689202B54D005034C0E07F20300319C1
:10032D007F30A20272067205500F12035AC202C22A
:10033D0006C205C2087F30800F300503E9C0E01208
:10034D0000A9300503D0E0F9D0E0B54DCC3005174C
:10035D007F30B9100C1200A97F583004077F7880C8
:10036D0003B908031200A93002057F2D0200A97FF1
:10037D00202008F87F2B2006F322920280CF286ED2
:10038D00756C6C2900D20112006E3001F8C2017833
:10039D004D30D50108F60201142D50434958120075
:1003AD006E2403B405004001E49003A69312009A55
:0D03BD00743A12009AD203754D040201F942
:10050000BB010CE58229F582E5833AF583E02250B0
:1005100006E92582F8E622BBFE06E92582F8E222FA
:0D052000E58229F582E5833AF583E4932214
:10052D00BB010689828A83F0225002F722BBFE01AD
:02053D00F322A7
:10053F00FAE6FB0808E6F925F0F618E6CA3AF622BD
:10054F00D083D082F8E4937012740193700DA3A33B
:10055F0093F8740193F5828883E47374029368604F
:06056F00EFA3A3A380DF4F
:10077700EFB40A07740D120782740A309811A8990A
:10078700B8130CC2983098FDA899C298B811F630E2
:0707970099FDC299F59922BA
:00000001FF
